:0404000002048D3233
:01040B0032BE
:0104130032B6
:03041B00022E604E
:0104230032A6
:03042B0002062B9B
:010433003296
:01043B00328E
:010443003286
:01044B00327E
:010453003276
:01045B00326E
:03046300024C93B5
:01046B00325E
:03047300022E2234
:01047B00324E
:03048300022F9CA9
:0A04E60090F207E4F0A3F0D200D278
:0404F00001C202C281
:0404F40003D204D259
:0404F80005D20678AB
:0904FC00007414F27801E4F278B6
:0A0505000274CEF2780374D5F27888
:0A050F000474E6F2780574E5F27852
:0905190006E4F278077464F2783C
:0A0522000874C7F2780974D1F2786A
:0C052C000A74BCF2087434F208E4F2080F
:0C053800F2780E74F4F2087401F208E48A
:0C054400F208F2781274F4F2087401F26C
:0C05500008E4F208F2781674F4F2087463
:0C055C0001F208E4F208F2781AE4F20858
:0C056800F208F208F2781E74BCF208746D
:0C05740002F208E4F208F2782274BCF2F3
:0C058000087402F208E4F208F278267415
:0C058C00BCF2087402F208E4F208F278F5
:0A0598002AE4F208F208F208F278F3
:0A05A2002EE4F208F208F208F278E5
:0A05AC0032E4F208F208F208F278D7
:0A05B60036E4F208F208F208F278C9
:0805C0003AE4F2783EE4F2781F
:0405C8003F7450F23A
:0306240002048647
:05048600122B2880FE8E
:0406270043A11022B9
:0A062B0053C07F53A1FE53BEFC3202
:07063500AFBE5307FB8FBEAF
:0E063C00E5BE30E5FBAFC674F85F4441FF8FAA
:01064A00C6E9
:09064B00E5C630E6FB43BE0422C3
:0E065400AFFB5307BF8FFB43F84090006412CA
:030662004CE42243
:0E066500900064124CE4AFFB5307BF8FFBAF55
:07067300F85307BF8FF822C6
:0C067A00300137124CB8AC82AD83AEF0FA
:0C068600FF786774FAF208E4F208F2084A
:0E069200F28C828D838EF0EF12323DAC82AD81
:0D06A00083AEF0FFEC30E00543FF0480075F
:0706AD00AFFF5307FB8FFFB5
:0106B4002223
:0C06B500300139124CB8AC82AD83AEF0BD
:0C06C100FF786774F4F2087401F208E49A
:0E06CD00F208F28C828D838EF0EF12323DAC7B
:0E06DB0082AD83AEF0FFEC30E00543FF0280FD
:0106E9000709
:0706EA00AFFF5307FD8FFF76
:0106F10022E6
:0E06F200AE82AF8374142EF582E43FF583E0F0
:0B070000FF530780BF80047F018002D0
:02070B007F006D
:03070D008F8222B6
:0E071000AF8290F0FCE4F0EF30E00690F0FCD9
:03071E007480F0F4
:0C072100EF30E10890F0FCE0FE4440F0F6
:0C072D00EF30E20890F0FCE0FE4420F009
:0C073900EF30E30890F0FCE0FE4410F00C
:0C074500EF30E40890F0FCE0FE4408F007
:0C075100EF30E50890F0FCE0FE4404F0FE
:0C075D00EF30E60890F0FCE0FE4402F0F3
:0C076900EF30E70890F0FCE0FF4401F0E6
:0707750090F0FCE0F5822288
:0C077C00AF827840C3E2F5F0EF95F0503A
:05078800048F828005D2
:05078D007840E2F58256
:010792002244
:0C079300AFF0AE83E5827842F208EEF28F
:05079F0008EFF27C00F0
:0C07A4007841C3E2F5F0EC95F0503A7893
:0C07B00042E22CFA08E23400FB08E2FFF1
:0E07BC008A828B838FF0125BF4F582C007C037
:0E07CA0004C003C002120710AE82D002D0039A
:0E07D800D004D0078A828B838FF0EE12377325
:0307E6000C80BBC9
:0107E90022ED
:0D07EA00AE82AF8390F0FDEEF0A3EFF07E45
:0607F700FD7FF07D00789B
:0B07FD00417402F28E828F838DF01297
:0E080800079390F0FDE0FEA3E0FF74E05FC4F4
:0E081600035407FC53071F7D007B008CF00588
:03082400F0800C55
:0C082700EE2EFEEF33FFED33FDEB33FB54
:0B083300D5F0F18E828F838DF0EB2258
:0E083E00AF82AE83ADF0FC90F101EFF0A3EEBF
:0E084C00F0A3EDF0A3ECF090F0FFE0FEA3E0CF
:0A085A00FF90F101E0F579A3E0F54D
:080864007AA3E0F57BA3E0F5A7
:0A086C007CA87BC4C8C4540F68C800
:0C087600540FC868C853001FE4F9E824C0
:0A08820076F582E934F8F583E08E84
:0C088C00828F83F074012EFCE43FFDA875
:0A0898007AE57BA2E7C833C833C835
:0908A2005401F9E57C257C49E5CF
:0B08AB007C23540153001FE4F9E824F3
:0A08B60076F582E934F8F583E08C52
:0C08C000828D83F074022EFCE43FFDA842
:0A08CC007AE57BC313C813C8C313F9
:0C08D600C813C8F9E57C030354C049E5D1
:0C08E2007C0303543F53001FE4F9E8249A
:0A08EE0076F582E934F8F583E08C1A
:0C08F800828D83F074032EFCE43FFDA809
:0A09040079E57AC403C8C403540760
:0C090E0068C85407C868C8F9E57BC4033A
:0A091A0054F849AA7BE57CC403CA27
:0E092400C40354076ACA5407CA6ACA53001FA4
:0A093200E4F9E82476F582E934F8D0
:0E093C00F583E08C828D83F074042EFCE43F82
:0A094A00FDA87953001FE4F9E8242A
:0A09540076F582E934F8F583E08CB3
:0E095E00828D83F08E828F83A3A3A3A3A3E4D4
:02096C00F02277
:05096E00100B028003E4
:0309730043FF023D
:050976001009028003DE
:03097B0043FF0235
:05097E00100A02800FC9
:0D09830043FF021206659000FA124CE412C8
:0209900006540B
:08099200AFFF5307FD8FFF22A8
:09099A001240B712416E50061222
:0509A30038E2125002D1
:0109A800222C
:0D09A900122C51902580E4F5F0122C8522CF
:0909B600E58290F105F0FF7E00DE
:0309BF00BE200057
:0A09C2005014EE2476F582E434F8B8
:0909CC00F583E0FDB5070280038C
:0309D5000E80E7AA
:0E09D8007F007D007C008E828F838DF0EC22EC
:0809E600124CB88582268583BE
:0509EE002785F028F54B
:0609F3002990F871E07884
:0C09F900ADF208E4F29003E8124185AA78
:0C0A050082E583FB3395E0FEFFEA252626
:0A0A1100FAEB3527FBEE3528FEEF67
:0C0A1B003529FF90F156EAF0A3EBF0A3A0
:0E0A2700EEF0A3EFF0124CB8AC82AD83AEF04F
:0E0A3500FF90F15AECF0A3EDF0A3EEF0A3EF6A
:0A0A4300F090F156E0F526A3E0F56F
:080A4D0027A3E0F528A3E0F562
:010A55002977
:0E0A5600122E04E582704590F15AE0FAA3E0FA
:0C0A6400FBA3E0FEA3E0FFC3EA9526EB35
:090A70009527EE9528EF648085BE
:0C0A790029F063F08095F05020124CB87A
:0E0A8500AC82AD83AEF0FF90F15AECF0A3ED21
:0E0A9300F0A3EEF0A3EFF090000A124CE48006
:010AA100B4A0
:020AA2007F00D3
:0E0AA400C007122E04E582D0076061C3EF6424
:0B0AB2008094D05059EF2406FDE4347E
:0C0ABD00F1FEC007C006C005122E0CACF4
:0E0AC90082D005D0068D828E83ECF012416E35
:040AD700D0075028CC
:0E0ADB00C007123987E582D0077009C00712E4
:060AE900099AD00780EC21
:0A0AEF00EF2406F582E434F1F583EC
:0A0AF900E0F582C007123A19D00799
:0D0B030090000AC007124CE4D0070F809448
:0A0B1000EF2406F582E434F1F583CA
:060B1A00E4F090F1062258
:0E0B2000AF83E58290F15EF0A3EFF090F160FC
:0B0B2E00E4F090F161F090F162F090B3
:090B3900F163F090F164E4F09026
:080B4200F165F090F166F090FE
:090B4A00F167F090F168E4F0900D
:080B5300F169F090F16AF090E5
:090B5B00F16BF090F16CE4F090F4
:080B6400F16DF090F16EF090CC
:090B6C00F16FF090F170E4F090DB
:080B7500F171F090F172F090B3
:090B7D00F173F090F174E4F090C2
:080B8600F175F090F176F0909A
:090B8E00F177F090F178E4F090A9
:080B9700F179F090F17AF09081
:090B9F00F17BF090F17CE4F09090
:080BA800F17DF090F17EF09068
:090BB000F17FF090F180E4F09077
:080BB900F181F090F182F0904F
:090BC100F183F090F184E4F0905E
:080BCA00F185F090F186F09036
:090BD200F187F090F188E4F09045
:080BDB00F189F090F18AF0901D
:090BE300F18BF090F18CE4F0902C
:080BEC00F18DF090F18EF09004
:090BF400F18FF090F190E4F09013
:080BFD00F191F090F192F090EB
:090C0500F193F090F194E4F090F9
:080C0E00F195F090F196F090D1
:090C1600F197F090F198E4F090E0
:080C1F00F199F090F19AF090B8
:090C2700F19BF090F19CE4F090C7
:080C3000F19DF090F19EF0909F
:090C3800F19FF090F1A0E4F090AE
:080C4100F1A1F090F1A2F09086
:090C4900F1A3F090F1A4E4F09095
:080C5200F1A5F090F1A6F0906D
:090C5A00F1A7F090F1A8E4F0907C
:080C6300F1A9F090F1AAF09054
:090C6B00F1ABF090F1ACE4F09063
:080C7400F1ADF090F1AEF0903B
:070C7C00F1AFF012065490E5
:0E0C8300F15EE0FEA3E0FF7D00C006C007C0EA
:0E0C9100051250BF15811581158190F872E093
:0D0C9F00FCA3E0FDA3E0A3E08C828D831296
:030CAC004CE422F3
:0A0CAF0090F1B0E4F090F1B1F09084
:080CB900F1B2F090F1B3F090EC
:090CC100F1B4E4F090F1B5F090FB
:080CCA00F1B6F090F1B7F090D3
:090CD200F1B8E4F090F1B9F090E2
:080CDB00F1BAF090F1BBF090BA
:090CE300F1BCE4F090F1BDF090C9
:080CEC00F1BEF090F1BFF090A1
:090CF400F1C0E4F090F1C1F090B0
:080CFD00F1C2F090F1C3F09088
:090D0500F1C4E4F090F1C5F09096
:080D0E00F1C6F090F1C7F0906E
:090D1600F1C8E4F090F1C9F0907D
:080D1F00F1CAF090F1CBF09055
:090D2700F1CCE4F090F1CDF09064
:080D3000F1CEF090F1CFF0903C
:090D3800F1D0E4F090F1D1F0904B
:080D4100F1D2F090F1D3F09023
:090D4900F1D4E4F090F1D5F09032
:080D5200F1D6F090F1D7F0900A
:090D5A00F1D8E4F090F1D9F09019
:080D6300F1DAF090F1DBF090F1
:090D6B00F1DCE4F090F1DDF09000
:080D7400F1DEF090F1DFF090D8
:090D7C00F1E0E4F090F1E1F090E7
:080D8500F1E2F090F1E3F090BF
:090D8D00F1E4E4F090F1E5F090CE
:080D9600F1E6F090F1E7F090A6
:090D9E00F1E8E4F090F1E9F090B5
:080DA700F1EAF090F1EBF0908D
:090DAF00F1ECE4F090F1EDF0909C
:080DB800F1EEF090F1EFF09074
:090DC000F1F0E4F090F1F1F09083
:080DC900F1F2F090F1F3F0905B
:090DD100F1F4E4F090F1F5F0906A
:080DDA00F1F6F090F1F7F09042
:090DE200F1F8E4F090F1F9F09051
:080DEB00F1FAF090F1FBF09029
:090DF300F1FCE4F090F1FDF09038
:080DFC00F1FEF090F1FFF09010
:0C0E0400F2007463F090F2017461F09051
:0C0E1000F202746EF090F203746EF09029
:0C0E1C00F204746FF090F2057474F09012
:080E2800F206E4F01206541278
:0C0E300009E6AE82AF83785EEEF208EFB8
:0E0E3C00F208E4F290F1B075F0001231DB74B0
:0A0E4A00A5C0E0745CC0E07480C035
:0E0E5400E01250BF158115811581900BB81268
:0A0E62004CE41209E6AE82AF83787B
:0C0E6C005EEEF208EFF208E4F290F1B044
:090E780075F0001231DB788D7475
:0A0E810000F20874F2F208E4F290A7
:0E0E8B00F1B075F000123699AD82AE83AFF073
:0A0E9900ED4E702B74BAC0E0745CDB
:0E0EA300C0E07480C0E01250BF1581158115AB
:0E0EB1008190F872E0FCA3E0FDA3E0A3E08CCA
:090EBF00828D83124CE40213BA87
:0A0EC8007400C0E0745DC0E07480A7
:0E0ED200C0E01250BF15811581158190F87295
:0E0EE000E0FCA3E0FDA3E0A3E08C828D831272
:070EEE004CE47437C0E0740E
:0C0EF5005DC0E07480C0E01250BF1581A9
:0E0F01001581158190F872E0FCA3E0FDA3E0DD
:0E0F0F00A3E08C828D83124CE490F872E0FC1B
:0E0F1D00A3E0FDA3E0A3E08C828D83124CE4E0
:0A0F2B007454C0E0745DC0E07480EF
:0E0F3500C0E01250BF15811581158190F87231
:0E0F4300E0FCA3E0FDA3E0A3E08C828D83120E
:0E0F51004CE490F872E0FCA3E0FDA3E0A3E006
:0C0F5F008C828D83124CE47484C0E0741A
:0C0F6B005DC0E07480C0E01250BF158132
:0E0F77001581158190F872E0FCA3E0FDA3E067
:0E0F8500A3E08C828D83124CE490F872E0FCA5
:0E0F9300A3E0FDA3E0A3E08C828D83124CE46A
:0A0FA10074B2C0E0745DC0E074801B
:0E0FAB00C0E01250BF15811581158190F872BB
:0E0FB900E0FCA3E0FDA3E0A3E08C828D831298
:0E0FC7004CE490F872E0FCA3E0FDA3E0A3E090
:0C0FD5008C828D83124CE474E2C0E07446
:0C0FE1005DC0E07480C0E01250BF1581BC
:0E0FED001581158190F872E0FCA3E0FDA3E0F1
:0E0FFB00A3E08C828D83124CE490F872E0FC2F
:0E100900A3E0FDA3E0A3E08C828D83124CE4F3
:0A1017007410C0E0745EC0E0748045
:0E102100C0E01250BF15811581158190F87244
:0E102F00E0FCA3E0FDA3E0A3E08C828D831221
:0E103D004CE490F872E0FCA3E0FDA3E0A3E019
:0C104B008C828D83124CE47440C0E07471
:0C1057005EC0E07480C0E01250BF158144
:0E1063001581158190F872E0FCA3E0FDA3E07A
:0C107100A3E08C828D83124CE4744FC00D
:0C107D00E0745EC0E07480C0E01250BF60
:0E10890015811581158190F872E0FCA3E0FD41
:0C109700A3E0A3E08C828D83124CE47473
:0A10A3006FC0E0745EC0E07480C00E
:0E10AD00E01250BF15811581158190F872E098
:0D10BB00FCA3E0FDA3E0A3E08C828D831276
:0E10C8004CE490F872E0FCA3E0FDA3E0A3E08E
:0C10D6008C828D83124CE47492C0E07494
:0C10E2005EC0E07480C0E01250BF1581B9
:0E10EE001581158190F872E0FCA3E0FDA3E0EF
:0C10FC00A3E08C828D83124CE474CFC002
:0C110800E0745EC0E07480C0E01250BFD4
:0E11140015811581158190F872E0FCA3E0FDB5
:0C112200A3E0A3E08C828D83124CE474E7
:0A112E0013C0E0745FC0E07480C0DD
:0E113800E01250BF15811581158190F872E00C
:0D114600FCA3E0FDA3E0A3E08C828D8312EA
:071153004CE4746FC0E0746E
:0C115A005FC0E07480C0E01250BF15813F
:0E1166001581158190F872E0FCA3E0FDA3E076
:0C117400A3E08C828D83124CE474C8C090
:0C118000E0745FC0E07480C0E01250BF5B
:0E118C0015811581158190F872E0FCA3E0FD3D
:0C119A00A3E0A3E08C828D83124CE4746F
:0A11A6000BC0E07460C0E07480C06C
:0E11B000E01250BF15811581158190F872E094
:0D11BE00FCA3E0FDA3E0A3E08C828D831272
:0711CB004CE4747FC0E074E6
:0C11D20060C0E07480C0E01250BF1581C6
:0E11DE001581158190F872E0FCA3E0FDA3E0FE
:0C11EC00A3E08C828D83124CE474EDC0F3
:0C11F800E07460C0E07480C0E01250BFE2
:0E12040015811581158190F872E0FCA3E0FDC4
:0C121200A3E0A3E08C828D83124CE474F6
:0A121E005BC0E07461C0E07480C0A2
:0E122800E01250BF15811581158190F872E01B
:0D123600FCA3E0FDA3E0A3E08C828D8312F9
:071243004CE474C9C0E07423
:0C124A0061C0E07480C0E01250BF15814C
:0E1256001581158190F872E0FCA3E0FDA3E085
:0C126400A3E08C828D83124CE47437C030
:0C127000E07462C0E07480C0E01250BF67
:0E127C0015811581158190F872E0FCA3E0FD4C
:0C128A00A3E0A3E08C828D83124CE4747E
:0A129600A5C0E07462C0E07480C0DF
:0E12A000E01250BF15811581158190F872E0A3
:0D12AE00FCA3E0FDA3E0A3E08C828D831281
:0712BB004CE4741EC0E07456
:0C12C20063C0E07480C0E01250BF1581D2
:0E12CE001581158190F872E0FCA3E0FDA3E00D
:0C12DC00A3E08C828D83124CE47440C0AF
:0C12E800E07463C0E07480C0E01250BFEE
:0E12F40015811581158190F872E0FCA3E0FDD4
:0C130200A3E0A3E08C828D83124CE47405
:0A130E0059C0E07463C0E07480C0B1
:0E131800E01250BF15811581158190F872E02A
:0D132600FCA3E0FDA3E0A3E08C828D831208
:071333004CE47440C0E074BB
:0C133A005EC0E07480C0E01250BF15815E
:0E1346001581158190F872E0FCA3E0FDA3E094
:0C135400A3E08C828D83124CE4748EC0E8
:0C136000E07463C0E07480C0E01250BF75
:0E136C0015811581158190F872E0FCA3E0FD5B
:0E137A00A3E0A3E08C828D83124CE41209E6FE
:0C138800AE82AF83785EEEF208EFF20850
:0C139400E4F290F1B075F0001231DB744F
:0A13A000A5C0E0745CC0E07480C0DA
:0E13AA00E01250BF158115811581900BB8120D
:0213B8004CE403
:0113BA002210
:0A13BB0090F20BE4F090F20CF090B9
:0813C500F20DF090F20EF09021
:0913CD00F20FE4F090F210F09030
:0813D600F211F090F212F09008
:0913DE00F213E4F090F214F09017
:0813E700F215F090F216F090EF
:0913EF00F217E4F090F218F090FE
:0813F800F219F090F21AF090D6
:09140000F21BE4F090F21CF090E4
:08140900F21DF090F21EF090BC
:09141100F21FE4F090F220F090CB
:08141A00F221F090F222F090A3
:09142200F223E4F090F224F090B2
:08142B00F225F090F226F0908A
:09143300F227E4F090F228F09099
:08143C00F229F090F22AF09071
:09144400F22BE4F090F22CF09080
:08144D00F22DF090F22EF09058
:09145500F22FE4F090F230F09067
:08145E00F231F090F232F0903F
:09146600F233E4F090F234F0904E
:08146F00F235F090F236F09026
:09147700F237E4F090F238F09035
:08148000F239F090F23AF0900D
:09148800F23BE4F090F23CF0901C
:08149100F23DF090F23EF090F4
:09149900F23FE4F090F240F09003
:0814A200F241F090F242F090DB
:0914AA00F243E4F090F244F090EA
:0814B300F245F090F246F090C2
:0914BB00F247E4F090F248F090D1
:0814C400F249F090F24AF090A9
:0914CC00F24BE4F090F24CF090B8
:0814D500F24DF090F24EF09090
:0914DD00F24FE4F090F250F0909F
:0814E600F251F090F252F09077
:0914EE00F253E4F090F254F09086
:0814F700F255F090F256F0905E
:0914FF00F257E4F090F258F0906D
:08150800F259F090F25AF09044
:08151000F20BE4F012096E1267
:0615180040B71206541258
:0C151E0009E6AE82AF83785EEEF208EFC3
:0E152A00F208E4F290F20B75F0001231DB745F
:0A153800A9C0E07463C0E07480C035
:0E154200E01250BF15811581158190F872E0FE
:0D155000FCA3E0FDA3E0A3E08C828D8312DC
:02155D004CE45C
:0E155F00122E04E582601C1209E6AE82AF83F4
:0B156D00785EEEF208EFF208E4F29066
:0A157800F20B75F0001231DB80DD8C
:0E15820090F20B75F0001257FEAE82AF839010
:0E159000F207EEF0A3EFF0C374059EE4648052
:0D159E008FF063F08095F05024EE24FB24C4
:0A15AB000BF582E434F2F583E0FF53
:0D15B5003395E0FEEF24D0FFEE34FFFE90F2
:0915C200F209EFF0A3EEF080073E
:0715CB0090F209E4F0A3F027
:0C15D20090F209E0FEA3E08E82F5832277
:0A15DE0074C4C0E07463C0E07480C0
:0E15E800C0E01250BF1581158115819001F4ED
:0815F600124CE474DFC0E07444
:0C15FE0063C0E07480C0E01250BF158193
:0C160A00158115819001F4124CE474C4A9
:0B161600C0E07463C0E07480C0E0120C
:0E16210050BF1581158115819001F4124CE423
:0A162F0074DFC0E07463C0E0748053
:0E163900C0E01250BF1581158115819001F49B
:08164700124CE474C4C0E0740D
:0C164F0063C0E07480C0E01250BF158141
:0C165B00158115819001F4124CE474DF3D
:0B166700C0E07463C0E07480C0E012BB
:0E16720050BF1581158115819001F4124CE4D2
:0A16800074C4C0E07463C0E074801D
:0E168A00C0E01250BF1581158115819001F44A
:08169800124CE474DFC0E074A1
:0C16A00063C0E07480C0E01250BF1581F0
:0C16AC00158115819001F4124CE474C407
:0B16B800C0E07463C0E07480C0E0126A
:0E16C30050BF1581158115819001F4124CE481
:0A16D10074DFC0E07463C0E07480B1
:0E16DB00C0E01250BF1581158115819001F4F9
:0816E900124CE474C4C0E0746B
:0C16F10063C0E07480C0E01250BF15819F
:0C16FD00158115819001F4124CE474DF9B
:0B170900C0E07463C0E07480C0E01218
:0E17140050BF1581158115819001F4124CE42F
:0117220022A4
:0A172300120654900064124CE474A6
:0A172D00DFC0E07463C0E07480C008
:0E173700E01250BF15811581158190F872E007
:0D174500FCA3E0FDA3E0A3E08C828D8312E5
:071752004CE474F9C0E074DF
:0C17590063C0E07480C0E01250BF158136
:0E176500158115811215DE1213BBAE82AF8303
:0E17730090F283EEF0A3EFF0BE0505BF00027A
:02178100805096
:0A17830074C4C0E07463C0E0748019
:0E178D00C0E01250BF15811581158190F872D1
:0E179B00E0FCA3E0FDA3E0A3E08C828D8312AE
:0717A9004CE4740EC0E07473
:0C17B00064C0E07480C0E01250BF1581DE
:0E17BC00158115811215DE1213BBE58285839F
:0917CA00F090F283F0A3E5F0F0C9
:0E17D30090F283E0FEA3E0FFBE0505BF00021A
:0217E100805333
:0A17E30074DFC0E07463C0E074809E
:0E17ED00C0E01250BF15811581158190F87271
:0E17FB00E0FCA3E0FDA3E0A3E08C828D83124E
:071809004CE47451C0E074CF
:0C18100064C0E07480C0E01250BF15817D
:0B181C00158115811215DE1215DE1279
:0E18270013BBE5828583F090F283F0A3E5F019
:01183500F0C2
:0E18360090F283E0FEA3E0FFBE0505BF0002B6
:021844008053CF
:0A18460074DFC0E07463C0E074803A
:0E185000C0E01250BF15811581158190F8720D
:0E185E00E0FCA3E0FDA3E0A3E08C828D8312EA
:07186C004CE474A0C0E0741D
:0C18730064C0E07480C0E01250BF15811A
:0B187F00158115811215DE1215DE1216
:0E188A0013BBE5828583F090F283F0A3E5F0B6
:01189800F05F
:0E18990090F283E0FEA3E0FFBE0505BF000253
:0218A70080506F
:0A18A90074DFC0E07463C0E07480D7
:0E18B300C0E01250BF15811581158190F872AA
:0E18C100E0FCA3E0FDA3E0A3E08C828D831287
:0718CF004CE474EDC0E0746D
:0C18D60064C0E07480C0E01250BF1581B7
:0E18E200158115811215DE1213BBE582858378
:0918F000F090F283F0A3E5F0F0A2
:0E18F90090F283E0FEA3E0FFBE0505BF0002F3
:0219070080500E
:0A19090074C4C0E07463C0E0748091
:0E191300C0E01250BF15811581158190F87249
:0E192100E0FCA3E0FDA3E0A3E08C828D831226
:07192F004CE4742EC0E074CB
:0C19360065C0E07480C0E01250BF158155
:0E194200158115811215DE1213BBE582858317
:09195000F090F283F0A3E5F0F041
:0E19590090F283E0FEA3E0FFBE0505BF000292
:021967008003FB
:03196900021A8DD2
:0A196C0074DFC0E07463C0E0748013
:0E197600C0E01250BF15811581158190F872E6
:0E198400E0FCA3E0FDA3E0A3E08C828D8312C3
:051992004CE4785E74D6
:0A1997006EF2087465F2087480F225
:0A19A10090F25B75F0001231DB904C
:0619AB00F25B120B20901C
:0E19B100F872E0FCA3E0FDA3E0A3E08C828DC1
:0719BF0083124CE4785E7412
:0A19C60094F2087465F2087480F2D0
:0A19D00090F25B75F0001231DB901D
:0619DA00F25B120B2090ED
:0E19E000F872E0FCA3E0FDA3E0A3E08C828D92
:0719EE0083124CE4785E74E3
:0A19F500C7F2087465F2087480F26E
:0A19FF0090F25B75F0001231DB7806
:061A090084743FF2087432
:0C1A0F00F8F208E4F290F25B75F00012AF
:051A1B00361F78847401
:0A1A2000D3F2087465F2087480F236
:0A1A2A0090F25B75F00012361F7891
:061A3400847426F2087420
:0C1A3A00F8F208E4F290F25B75F0001284
:051A4600361F788474D6
:0A1A4B00D6F2087465F2087480F208
:0A1A550090F25B75F00012361F904E
:061A5F00F25B120B209067
:0E1A6500F872E0FCA3E0FDA3E0A3E08C828D0C
:0E1A730083124CE490F872E0FCA3E0FDA3E0C7
:0C1A8100A3E08C828D83124CE4D38029FA
:0A1A8D0074C4C0E07463C0E074800C
:0E1A9700C0E01250BF15811581158190F872C4
:0E1AA500E0FCA3E0FDA3E0A3E08C828D8312A1
:031AB3004CE4C33D
:011AB600220D
:0A1AB700AF83E5827845F208EFF2F4
:0E1AC100122E04E582601C1209E6AC82AD8391
:0B1ACF00785EECF208EDF208E4F29003
:0A1ADA00F28575F0001231DB80DDAB
:0C1AE4001209E6AC82AD83785EECF208DB
:0E1AF000EDF208E4F290F28575F0001231DBA1
:0A1AFE0074DBC0E07465C0E0748082
:0E1B0800C0E01250BF15811581158190F87252
:0E1B1600E0FAA3E0FBA3E0A3E08A828B831237
:0A1B24004CE41209E6AC82AD8378B0
:0C1B2E005EECF208EDF208E4F290F285A3
:0D1B3A0075F0001231DB90F28575F000129D
:0C1B470057FEAC82AD83300321C005C006
:0A1B530004C004C00574F6C0E0747D
:0C1B5D0065C0E07480C0E01250BFE5815C
:081B690024FBF581D004D00536
:0C1B7100C004C005C005C0047417C0E02B
:0C1B7D007466C0E07480C0E01250BF1518
:0E1B89008115811581D004D00590F872E0FA24
:0E1B9700A3E0FBA3E0FCA3E0FD8A828B83C0E9
:0B1BA50005C004124CE47417C0E0748B
:0C1BB00066C0E07480C0E01250BF1581D8
:0E1BBC0015811581D004D00590F872E0FAA3CF
:0E1BCA00E0FBA3E0FCA3E0FD8A828B83C00554
:0E1BD800C004124CE4D004D005D005D0047B2C
:011BE60000FE
:0C1BE700C3EB6480948E50237845E22B01
:0D1BF300FA08E23400FF8C06EE24EB2B24F0
:0A1C000085F582E434F2F583E0FE7E
:081C0A008A828F83F00B80D564
:0A1C120074F92C2485F582E434F205
:0C1C1C00F583E090F2D5F074FA2C2485DA
:0C1C2800F582E434F2F583E090F2D6F08F
:0A1C340074FB2C2485F582E434F2E1
:0D1C3E00F583E090F2D7F090F2D8E4F07852
:0C1C4B0045E22404FE08E23400FF8E8213
:0A1C57008F837430F078BB741AF22A
:0C1C6100087466F2087480F290F2D575E9
:0E1C6D00F000C007C006124AA9E5828583F088
:0C1C7B00D006D00745F070107845E22438
:0C1C870005F58208E23400F5837431F0AA
:071C930078BB741EF2087417
:0C1C9A0066F2087480F290F2D575F0003C
:0E1CA600C007C006124AA9E5828583F0D00669
:0C1CB400D00745F070107845E22405F5DB
:0A1CC0008208E23400F5837432F06C
:071CCA0078BB7422F20874DC
:0C1CD10066F2087480F290F2D575F00005
:0E1CDD00C007C006124AA9E5828583F0D00632
:0C1CEB00D00745F070107845E22405F5A4
:0A1CF7008208E23400F5837433F034
:071D010078BB7426F20874A0
:0C1D080066F2087480F290F2D575F000CD
:0E1D1400C007C006124AA9E5828583F0D006FA
:0C1D2200D00745F070107845E22405F56C
:0A1D2E008208E23400F5837434F0FB
:071D380078BB742AF2087465
:0C1D3F0066F2087480F290F2D575F00096
:0E1D4B00C007C006124AA9E5828583F0D006C3
:0C1D5900D00745F070107845E22405F535
:0A1D65008208E23400F5837435F0C3
:071D6F0078BB742EF208742A
:0C1D760066F2087480F290F2D575F0005F
:0E1D8200C007C006124AA9E5828583F0D0068C
:0C1D9000D00745F070107845E22405F5FE
:0A1D9C008208E23400F5837436F08B
:071DA60078BB7432F20874EF
:0C1DAD0066F2087480F290F2D575F00028
:0E1DB900C007C006124AA9E5828583F0D00655
:0C1DC700D00745F070107845E22405F5C7
:0A1DD3008208E23400F5837437F053
:071DDD0078BB7436F20874B4
:0C1DE40066F2087480F290F2D575F000F1
:0E1DF000C007C006124AA9E5828583F0D0061E
:0C1DFE00D00745F070107845E22405F590
:0A1E0A008208E23400F5837438F01A
:071E140078BB743AF2087478
:0C1E1B0066F2087480F290F2D575F000B9
:0E1E2700C007C006124AA9E5828583F0D006E6
:0C1E3500D00745F070107845E22405F558
:0A1E41008208E23400F5837439F0E2
:071E4B0078BB743EF208743D
:0C1E520066F2087480F290F2D575F00082
:0E1E5E00C007C006124AA9E5828583F0D006AF
:0C1E6C00D00745F070107845E22405F521
:0A1E78008208E23400F5837430F0B4
:071E820078BB743EF2087406
:0C1E890066F2087480F290F2D575F0004B
:0E1E9500C007C006124AA9E5828583F0D00678
:0A1EA300D00745F0604E78BB744292
:0C1EAD00F2087466F2087480F290F2D51E
:0E1EB90075F000C007C006124AA9E5828583B5
:0C1EC700F0D006D00745F0602778BB740F
:0A1ED30046F2087466F2087480F20B
:0E1EDD0090F2D575F000C007C006124AA9E5C4
:0C1EEB00828583F0D006D00745F0700718
:071EF7008E828F837431F02D
:071EFE0078BB7442F2087486
:0C1F050066F2087480F290F2D575F000CE
:0D1F1100124AA9E5828583F045F070107832
:0C1F1E0045E22405F58208E23400F5835A
:031F2A007431F01F
:071F2D0078BB7446F2087452
:0C1F340066F2087480F290F2D575F0009F
:0D1F4000124AA9E5828583F045F070107803
:0C1F4D0045E22405F58208E23400F5832B
:031F59007432F0EF
:011F5C002262
:0A1F5D00744AC0E07466C0E07480AE
:0E1F6700C0E01250BF15811581158190F872EF
:0E1F7500E0FCA3E0FDA3E0A3E08C828D8312CC
:071F83004CE47457C0E07448
:0C1F8A0066C0E07480C0E01250BF1581FA
:0E1F96001581158190F872E0FCA3E0FDA3E038
:0A1FA400A3E08C828D83124CE4222E
:0B1FAE00AF83E5827847F208EFF29065
:0C1FB900F2D97442F090F2DA744CF0900F
:0C1FC500F2DB7441F090F2DC744EF090FE
:0B1FD100F2DD744BF090F2DEE4F090C3
:0A1FDC00F2DFF090F2E07401F090E3
:0C1FE600F2E17402F090F2E27403F0905B
:0C1FF200F2E37404F090F2E47405F09047
:0C1FFE00F2E57406F090F2E67407F09033
:0C200A00F2E77408F090F2E87409F0901E
:0C201600F2E9740AF090F2EA740BF0900A
:0C202200F2EB740CF090F2EC740DF090F6
:0C202E00F2ED740EF090F2EE740FF01260
:0E203A000654ADFF5305FB8DFFADFF5305FDB2
:092048008DFF90F36F121AB778B6
:062051005E746FF20874DA
:0C205700F3F208E4F290F2DF75F00012E2
:0620630031DB30032074A4
:0A206900DFC0E074F2C0E0E4C0E064
:0A2073007470C0E07466C0E0748071
:0B207D00C0E01250BFE58124FAF5819D
:0C2088007847E2240BFC08E23400FD8CD9
:0C209400828D83E090F2EDF07847E224AA
:0E20A00012F58208E23400F583E090F2EEF0D3
:0E20AE00C005C004121723D004D00540030261
:0220BC0023649B
:0C20BE0043FF027847E22405F58208E2A7
:0E20CA003400F583E0FAA3E0FBA3E0FEA3E000
:0920D800FF90F0FF74D9F0A3742D
:0C20E100F2F08A828B838EF0EFC005C005
:0C20ED000412083ED004D0057847E2241D
:0E20F90013F58208E23400F583E0FFC2D575CE
:0A210700F002EF30E704B2D5F40453
:062111008430D502F40445
:0D211700C0E0A2D595E0F5F0D0E024B7F5CA
:082124002CE5F034FFF52D78E5
:0C212C0047E22410F58208E23400F5833D
:08213800E0FB8B2A752B0078F7
:0C21400047E2240EF58208E23400F5832B
:0E214C00E0FAA3E0FB8A828B83C005C0041278
:0C215A0007EAAA82AB83AEF0FFEA2AF588
:082166002EEB33F52FEE33F5EB
:06216E0030EF33F531787B
:0C21740047E2240CF58208E23400F583F9
:0E218000E0FEA3E0FF8E828F831207EAAA82A0
:0E218E00AB83AEF0FFD004D0058C828D83E0D1
:08219C00FC7D00C02CC02DC029
:0421A4002AC02BC062
:0421A8002EC02FC056
:0A21AC0030C031C002C003C006C0FD
:0A21B6000774D9C0E074F2C0E0E441
:0B21C000C0E0C004C0057445C0E0741E
:0A21CB00F8C0E0E4C0E07488C0E052
:0A21D5007466C0E07480C0E074EF8F
:0C21DF00C0E074F2C0E0E4C0E0124EB6B4
:0A21EB00AE82E58124E6F5818E073F
:0321F500BF4000E8
:0A21F8005010EF24EFF582E434F2FA
:08220200F5837420F00F80EB5E
:06220A002004030222A2E1
:0822100090F7F474EFF0A374E1
:0C221800F2F090F7F67440F0A3E4F0A39D
:0B222400F0A3F090F7FA744DF0A374E3
:06222F00F8F090F7FC74CA
:07223500DFF0A374F2F0904A
:06223C00F32F1248DC74D0
:0A224200BAC0E07466C0E07480C00A
:0C224C00E01250BF1581158115817F0044
:03225800BF1000B4
:0A225B00502EEF24DFF582E434F288
:0D226500F583E0FE7D00C007C006C00574D3
:0A227200D0C0E07466C0E07480C0C4
:0E227C00E01250BFE58124FBF581D0070F80F2
:01228A00CD86
:0A228B0074D5C0E07466C0E07480F2
:0D229500C0E01250BF158115811581802A0F
:0722A200785E74EFF208748E
:0C22A900F2F208E4F290F32F75F000123E
:0722B50031DB74D7C0E074B7
:0C22BC0066C0E07480C0E01250BF1581C5
:0422C80015811581E6
:0222CC007F0091
:0322CE00BF40000E
:0A22D100502EEF242FF582E434F3C1
:0D22DB00F583E0FE7D00C007C006C005745D
:0A22E800D0C0E07466C0E07480C04E
:0E22F200E01250BFE58124FBF581D0070F807C
:01230000CD0F
:0A23010074E8C0E07466C0E0748068
:0E230B00C0E01250BF15811581158190F87247
:0E231900E0FCA3E0FDA3E0A3E08C828D831224
:072327004CE474C4C0E07433
:0C232E0063C0E07480C0E01250BF158155
:0E233A001581158190F872E0FCA3E0FDA3E090
:0E234800A3E08C828D83124CE490F872E0FCCE
:0E235600A3E0FDA3E0A3E08C828D83124CE493
:0423640012066522D6
:042368007E017F0073
:0E236C00C3EE9410EF6480948050198E82C2EC
:0C237A00F0C007C00685F025125816D0F0
:0A23860006D0070EBE00DF0F80DC5A
:01239000222A
:042391007E007F004B
:0E239500C3EE9410EF6480948050198E82C2C3
:0C23A300F0C007C00685F025125816D0C7
:0A23AF0006D0070EBE00DF0F80DC31
:0123B9002201
:0423BA007E007F0022
:0D23BE00C3EE9404EF648094805018EE2468
:0923CB0002F9EE245EF582EF3404
:0C23D400F8F583E0FDF30EBE00E00F8082
:0123E000DD1F
:0123E10022D9
:0E23E200AFC95307FC8FC9AFC974FB5F440835
:0423F000FF8FC92270
:0E23F400AF83E58290F380F0A3EFF012357511
:072402001235C212239130D4
:0524090005030225BDE2
:08240E0012416E50030225305B
:0B241600AF8CA2BD9208AEF3ADFD78C4
:0A2421004DE5F4F2784EE5FEF2C03E
:0C242B0007C006C005120627124177907A
:0C243700F89DE4F0C206AABE53027F8AA2
:0E244300BE43A203120635D005D006D007789E
:0A24510049E5D5F2784AE5D4F2E53A
:0B245B00D6540124FF920743D6817A7B
:06246600627BF88B02907E
:07246C00F869EAF07A627BD7
:07247300F890F86AEAF07A24
:06247A00697BF88BD57AA6
:0A248000697BF88AD475D601ABA879
:0A248A00784BE5B8F2784CE59AF2C1
:0E24940043A8A053A8A0AAB85302C08AB8AAB1
:0B24A2009A5302C08A9A43A204AAA524
:0624AD00EAB5A50280FA69
:0E24B300C00390F380E0FBA3E0FC8CA48BA39D
:0424C100AAA5D003F5
:0624C500EAB5A50280FA51
:0E24CB0043C70275BE06000000E5BE54036064
:0924D9000875D7010043870100DA
:0A24E2008BA8784BE2F5B8784CE2C5
:0A24EC00F59A7849E2F5D5784AE246
:0824F600F5D430070343D601C1
:0E24FE00C007C006C0051240BBD005D006D0F6
:0C250C00078F8CA20892BD8EF38DFD7825
:0A2518004DE2F5F4784EE2F5FE9076
:0E252200DE017401F090DE0B7407F00225BD9F
:0C253000124CB8784FC0E0E582F208E5DC
:0C253C0083F208E5F0F2D0E008F220067F
:0B2548000B90F89D7402F012417FD24E
:012553000681
:0E255400900064124CE490F380E0FAA3E0FBE8
:0B25620078ADEAF208EBF29003E812FB
:07256D004185858232858360
:012574003333
:0C257500124CB8AC82AD83AEF0FF784F82
:0C258100D3E29CF4B3F534B308E29DF4FF
:0A258D00B3F535B308E29EF4B3F590
:0925970036B308E29FF4F537AAFF
:0A25A00032E533FB3395E0FEFFC384
:0725AA00E5349AE5359BE5DD
:0825B100369EE5379F5005122C
:0425B900099A80B843
:0425BD00122368225B
:0625C100E58290F382F0B8
:0E25C700122DB0E582700843FF021240B7806B
:0125D500F114
:0D25D60090F382E0FFF582C007122DEB129A
:0625E300416ED007501C00
:0E25E900C007123987E582D0077009C00712BB
:0625F70040B7D00780ECA4
:0825FD008F82123A191240B757
:08260500AFFF5307FD8FFF2218
:0D260D00AD82AE83AFF0C007C006C005125D
:0D261A00416ED005D006D00740030226D146
:0D2627008D828E838FF0C007C006C00512A3
:0E26340057FEAB82D005D006D007EB04FCEBBE
:0E2642002DF8E43EF98F02888289838AF074B5
:0E2650002F1237730B0BEC2DF9E43EFA8F04BA
:0D265E0089828A838CF0742F1237737C0000
:05266B00C3EC9B50616F
:0E267000C007C006C005C004C003123987E5CC
:0E267E0082D003D004D005D006D0077019C05A
:0E268C0007C006C005C004C00312099AD0039F
:0A269A00D004D005D006D00780CC94
:0E26A400EC2DF8E43EF98F02888289838AF0DB
:0E26B200125BF4F582C007C006C005C004C06C
:0E26C00003123A19D003D004D005D006D0077B
:0326CE000C809AE3
:0126D10022E6
:0626D200E58290F384F0A4
:0E26D80075E10490DF3BE0FFBF01F590F38356
:0E26E600E090DF08F090F384E090DF06F075DE
:0326F400E10222DE
:0E26F700AE82AF83C007C00612311A90DF1307
:0C270500E4F01230DCD006D007EE240611
:0C271100F9E3FDEE2402F9E390F383F0FD
:06271D008D821226D2227B
:0E272300AF83E58290F386F0A3EFF0124CB87E
:0827310085824385834485F095
:0427390045F546908C
:0E273D00F3887440F0A3747EF0A37405F0A33B
:0E274B00E4F090F38C7442F090F38D744CF037
:0D27590090F38E7441F090F38F744EF09069
:0B276600F390744BF090F391E4F090BE
:09277100F385E0FB2406F9E3F511
:07277A0038EB2402F9E390A3
:09278100F383F0853882C00312D5
:08278A0026D2D00330030F90AA
:0E279200F38874B8F0A3740BF0A3E4F0A3F086
:0C27A000AAFF5302FD8AFF90F388E0F5C9
:0827AC0039A3E0F53AA3E0F5C2
:0627B4003BA3E0F53C90A0
:0827BA00F386E0F53DA3E0F514
:0527C2003EE4F53FF5C7
:0427C70040F541F5A3
:0127CB0042CB
:0927CC00E53D453E603DC00312ED
:0C27D5004CB8AA82AB83AEF0FFEAC395BB
:0527E10043F547EB95F4
:0527E60044F548EE95EA
:0527EB0045F549EF95E2
:0427F00046F54AACB4
:0927F4003DAD3E7E007F00C3E50F
:0627FD00479CE5489DE544
:0A280300499EE54A9FD003400302FE
:02280D0029C7D9
:0B280F00C00312099A12067AD00305DC
:06281A003FE4B53F0C0590
:0528200040B540070572
:0528250041B541020570
:01282A00426B
:0C282B0078587440F208749CF208E4F243
:0928370008F2853F82854083858B
:0728400041F0E542C0031264
:0E2847002ED8AC82AD83AEF0FFD003EC4D4E28
:0D2855004F700E8B06FF8E828F83C0031222
:0428620026F7D00382
:0E286600C003124CB8AC82AD83AEF0FFD003BD
:0A287400ECC39543FCED9544FDEE26
:09287E009545FEEF9546FFC3E508
:06288700399CE53A9DE5D5
:0A288D003B9EE53C9F5010C0031273
:0D28970023E29007D0124CE4D00343FF026F
:0E28A400C00312335FAE82AF83D0038E048F69
:0828B20005EE4F70030227CC74
:0C28BA008C828D83E0FFEB2402F9E3FE2A
:0C28C60090DF38E02EF3C0037853E2FAF4
:0A28D20008E2FB7E008C478D48757C
:0A28DC00490074022FF58278407461
:0E28E60015F2C006C003C00212077CAF82D0FC
:0C28F40002D003D0067877EFF208E4F27F
:072900007874E547F208E5D9
:0A29070048F208E549F28A828B834A
:0E2911008EF0C0031234AE124FD0D003D003AC
:05291F0040030229B88D
:0C292400C0037853E2FE08E2FF8E828FB1
:0E29300083A3A3A3A3A3E0FAA3E0FBA3E0FC10
:0B293E00A3E0FD90F0FF748CF0A37488
:0C294900F3F08A828B838CF0EDC007C095
:0929550006C00312083E78BB74B1
:0A295E0020F20874F8F208E4F29089
:0E296800F38C75F000124AA9E5828583F0D049
:0C29760003D006D007D00345F06003201A
:02298200002A29
:0E298400740B2EFEE43FFF8E828F83E0C39B18
:0E2992008E828F83F0C00312337AD003AFFF22
:0C29A0005307FB8FFF783AEBF290000128
:0229AC00802386
:0A29AE00C00312337AD0030227CCD5
:0E29B80012337AAFFF5307FB8FFF90000080B1
:0129C6000A06
:0A29C700AFFF5307FB8FFF900000E5
:0129D10022E3
:0C29D200AF83E58290F392F0A3EFF030A9
:0C29DE00052990F392E0FEA3E0CE25E076
:0C29EA00CE33CE25E0CE33EE241AF9E304
:0E29F600FC09E3FD09E3FE09E3FF8C828D83FB
:052A04008EF0022A948F
:0C2A090090F392E0FEA3E0FF4E706078B6
:0C2A15003EE2605B8E04EFCC25E0CC3389
:0B2A2100CC25E0CC33EC240AF9E3F5EF
:082A2C004B09E3F54C09E3F549
:062A34004D09E3F54E78A8
:0A2A3A003E7900E2F5F0E3A4FCADE4
:0C2A4400F078ADECF208EDF29007D01233
:0E2A50004185AC82E583FD3395E0FBFAEC2571
:082A5E004BFCED354CFDEB359E
:0A2A66004DFBEA354EFA8C828D8399
:042A70008BF0802047
:0D2A7400EFCE25E0CE33CE25E0CE33EE24AC
:0C2A81000AF9E3FC09E3FD09E3FE09E3A8
:072A8D00FF8C828D838EF0A7
:012A9400221F
:0B2A9500AF83E5827855F208EFF29065
:082AA000F85DE0FC3395E0FD58
:0E2AA800C3EC9404ED64809480504F8C828DBA
:0E2AB60083C005C0041229D2AA82AB83D004CB
:082AC40090F385ECF0785579E0
:0C2ACC0053E2F308E209F38A828B83C016
:0E2AD80004122723AE82AF83D004D005BE00C7
:062AE60005BF0002800F95
:0A2AEC00BE010CBF0009C205783ED0
:052AF600E4F2D380288A
:072AFB000CBC00A90D80A630
:092B0200783EE22401F2783E79EC
:0B2B0B0001C3E2F5F0E395F0500678FE
:052B16003EE4F2D205CF
:082B1B001223BA783AE4F2C378
:012B2300228F
:042B2400758F002287
:0A2B28001240AA1209A943FE081288
:062B3200062712236812C1
:092B38002B249003E8124CE41276
:0A2B410032DED21290DF13E4F0122E
:022B4B000CAFCD
:0A2B4D00787CE4F2787D7415F2083C
:0C2B5700E4F290F39475F00012352112A6
:062B630040B730030890AA
:072B6900F394121FAE804936
:0E2B700090F394122A95501775E104900064BA
:072B7E00124CE41230E2905A
:062B8500F394121FAE12D2
:042B8B001F5D802A20
:0E2B8F0075E104900064124CE41230E243FF42
:0E2B9D0002AFFF5307FB8FFF901B58124CE452
:0E2BAB00AFFF5307FD8FFFAFFF5307FB8FFFF8
:0B2BB90012416E5006783EE22401F24B
:0A2BC400783EE26073783EE2F5F01F
:0A2BCE00E2A4F58285F08378007917
:0C2BD800ADE2F309E4F3124185AE82AFD8
:0C2BE40083783EE27D0024FFF582ED3492
:0A2BF000FFF583783EE2FC7D0078DB
:0C2BFA00ADEC24FFF2ED34FF08F2C00740
:0C2C0600C006124185AC82AD83780079D5
:0B2C1200ADE2F309E4F38C828D831225
:0E2C1D004185AC82AD83D006D00774F5C39E0E
:0D2C2B00FEE49FFFEC2EF582ED3FF58312D5
:042C380023F48006FB
:062C3C009001041223F4D4
:0C2C42001230EB90DF13E4F01230DC02E3
:032C4E002B4D22E9
:095C9C00696E7465726E65740096
:0E5CA500646F66696C652822696E69742E6CE6
:075CB300756122290D0A00B2
:0E5CBA002D2D204E6F206E65656420746F20C6
:0E5CC8007772697465206F7574202E6C75619B
:0E5CD6002066696C65732061732074686579BF
:0E5CE400207365656D20746F20616C726561C0
:0E5CF2006479206578697374202D2D0D0A00E9
:0E5D00002D2D2057726974696E67206F7574BF
:0E5D0E00202E6C75612066696C6573206173D0
:0E5D1C0020746865792063616E6E6F7420627A
:0D5D2A006520666F756E64202D2D0D0A003A
:0E5D370066696C652E6F70656E2822696E6954
:0E5D4500742E6C7561222C20227722290D0A03
:015D5300004F
:0E5D540066696C652E77726974656C696E65A0
:0E5D6200285B5B6770696F2E6D6F6465283378
:0E5D70002C206770696F2E4F555450555429E2
:065D7E005D5D290D0A0025
:0E5D840066696C652E77726974656C696E6570
:0E5D9200285B5B6770696F2E777269746528F5
:0E5DA000332C206770696F2E4C4F57295D5DC4
:045DAE00290D0A00B1
:0E5DB20066696C652E77726974656C696E6542
:0E5DC000285B5B6770696F2E6D6F6465283518
:0E5DCE002C206770696F2E4F55545055542984
:065DDC005D5D290D0A00C7
:0E5DE20066696C652E77726974656C696E6512
:0E5DF000285B5B6770696F2E77726974652897
:0E5DFE00352C206770696F2E4C4F57295D5D64
:045E0C00290D0A0052
:0E5E100066696C652E77726974656C696E65E3
:0E5E1E00285B5B6770696F2E6D6F64652834BA
:0E5E2C002C206770696F2E4F55545055542925
:065E3A005D5D290D0A0068
:0E5E400066696C652E636C6F736528290D0A08
:015E4E000053
:0E5E4F0066696C652E72656D6F766528276733
:0E5E5D006F6F676C6574696D652E6C756127DB
:045E6B00290D0A00F3
:0E5E6F0066696C652E6F70656E2822676F6F16
:0E5E7D00676C6574696D652E6C7561222C2052
:075E8B00227722290D0A0015
:0E5E920066696C652E77726974656C696E6561
:0E5EA000285B5B636F6E6E473D6E65742E630C
:0E5EAE007265617465436F6E6E656374696F33
:0E5EBC006E286E65742E5443502C2030295DE4
:055ECA005D290D0A0036
:0E5ECF0066696C652E77726974656C696E6524
:0E5EDD00285B5B636F6E6E473A6F6E28226320
:0E5EEB006F6E6E656374696F6E222C66756E45
:0E5EF9006374696F6E28636F6E6E2C2070618B
:0C5F0700796C6F6164295D5D290D0A0052
:0E5F130066696C652E77726974656C696E65DF
:0E5F2100285B5B636F6E6E473A73656E642893
:0E5F2F002248454144202F20485454502F3121
:0E5F3D002E315C725C6E486F73743A20676F91
:0E5F4B006F676C652E636F6D5C725C6E4163F8
:0E5F5900636570743A202A2F2A5C725C6E22F7
:085F67002E2E5D5D290D0A00DC
:0E5F6F0066696C652E77726974656C696E6583
:0E5F7D00285B5B22557365722D4167656E745B
:0E5F8B003A204D6F7A696C6C612F342E3020F5
:0E5F990028636F6D70617469626C653B2065F2
:0E5FA700737038323636204C75613B295C72BF
:0E5FB5005C6E5C725C6E222920656E64295D54
:055FC3005D290D0A003C
:0E5FC80066696C652E77726974656C696E652A
:0E5FD6002822636F6E6E473A6F6E285C22724F
:0E5FE4006563656976655C222C2066756E63C8
:0E5FF20074696F6E28636F6E6E472C207061AD
:0B600000796C6F61642922290D0A00F1
:0E600B0066696C652E77726974656C696E65E6
:0E60190028227072696E7428737472696E6743
:0E6027002E737562287061796C6F61642C7342
:0E6035007472696E672E66696E6428706179F8
:0E6043006C6F61642C5C22446174653A5C22CF
:0E605100292B31382C737472696E672E6669C4
:0E605F006E64287061796C6F61642C5C224461
:0E606D006174653A5C22292B3231292E2E22D5
:04607B00290D0A00E1
:0E607F0066696C652E77726974656C696E6572
:0E608D002822737472696E672E737562287014
:0E609B0061796C6F61642C737472696E672E8C
:0E60A90066696E64287061796C6F61642C5CAE
:0E60B70022446174653A5C22292B31352C732A
:0E60C5007472696E672E66696E642870617968
:0E60D3006C6F61642C5C22446174653A5C223F
:0C60E100292B3136292E2E22290D0A0011
:0E60ED0066696C652E77726974656C696E6504
:0E60FB002822737472696E672E7375622870A6
:0E61090061796C6F61642C737472696E672E1D
:0E61170066696E64287061796C6F61642C5C3F
:0E61250022446174653A5C22292B31312C73BF
:0E6133007472696E672E66696E6428706179F9
:0E6141006C6F61642C5C22446174653A5C22D0
:0C614F00292B3132292E2E22290D0A00A6
:0E615B0066696C652E77726974656C696E6595
:0E6169002822737472696E672E737562287037
:0E61770061796C6F61642C737472696E672EAF
:0E61850066696E64287061796C6F61642C5CD1
:0E61930022446174653A5C22292B32332C734E
:0E61A1007472696E672E66696E64287061798B
:0E61AF006C6F61642C5C22446174653A5C2262
:0C61BD00292B3234292E2E22290D0A0035
:0E61C90066696C652E77726974656C696E6527
:0E61D7002822737472696E672E7375622870C9
:0E61E50061796C6F61642C737472696E672E41
:0E61F30066696E64287061796C6F61642C5C63
:0E62010022446174653A5C22292B32362C73DC
:0E620F007472696E672E66696E64287061791C
:0E621D006C6F61642C5C22446174653A5C22F3
:0C622B00292B3237292E2E22290D0A00C3
:0E62370066696C652E77726974656C696E65B8
:0E6245002822737472696E672E73756228705A
:0E62530061796C6F61642C737472696E672ED2
:0E62610066696E64287061796C6F61642C5CF4
:0E626F0022446174653A5C22292B32392C736B
:0E627D007472696E672E66696E6428706179AE
:0E628B006C6F61642C5C22446174653A5C2285
:0C629900292B3330292E2E22290D0A005B
:0E62A50066696C652E77726974656C696E654A
:0E62B3002822737472696E672E7375622870EC
:0E62C10061796C6F61642C737472696E672E64
:0E62CF0066696E64287061796C6F61642C5C86
:0E62DD0022446174653A5C22292B31342C7303
:0E62EB007472696E672E66696E642870617940
:0E62F9006C6F61642C5C22446174653A5C2217
:0E630700292B3136292E2E5C225C5C725C5CE8
:096315006E5C222922290D0A0008
:0E631E0066696C652E77726974656C696E65D0
:0E632C002822636F6E6E473A636C6F736528AC
:06633A002922290D0A00D2
:0E63400066696C652E77726974656C696E65AE
:0B634E002822656E642922290D0A0038
:0E63590066696C652E77726974656C696E6595
:0E636700285B5B636F6E6E473A636F6E6E6508
:0E63750063742838302C27676F6F676C652EB5
:0B638300636F6D27295D5D290D0A0086
:0E638E007072696E742827636F6E6E472072FE
:0D639C00656164795C725C6E27290D0A0052
:0E63A9007072696E7428776966692E7374616C
:0D63B7002E7374617475732829290D0A0076
:0E63C4006770696F2E777269746528342C201B
:0D63D2006770696F2E48494748290D0A0081
:0E63DF006770696F2E777269746528342C2000
:0C63ED006770696F2E4C4F57290D0A0095
:0E63F900776966692E7374612E636F6E6E6530
:07640700637428290D0A004F
:0E640E00776966692E7374612E636F6E66691E
:0E641C00672822496E746572736563745F3180
:0E642A00222C22416C6F6E676B657931323324
:0E64380022292020776966692E7374612E6315
:0B6446006F6E6E65637428290D0A005C
:0E645100776966692E7374612E636F6E6669DB
:0E645F006728225452454E446E65743635331C
:0E646D007B646F776E7374616972737D222C8D
:0E647B002273746F6E65627221646765222958
:0E6489002020776966692E7374612E636F6E32
:096497006E65637428290D0A00EA
:0E64A000776966692E7374612E636F6E66698C
:0E64AE006728225452454E446E6574363533CD
:0E64BC007B75707374616972737D222C22737C
:0E64CA00746F6E65627221646765222920205E
:0E64D800776966692E7374612E636F6E6E6550
:0764E600637428290D0A0070
:0E64ED00776966692E7374612E636F6E66693F
:0E64FB0067282248696C6C73696465222C2244
:0E650900566172696F7573436861727322295F
:0E6517002020776966692E7374612E636F6EA3
:096525006E65637428290D0A005B
:0E652E00776966692E7374612E636F6E6669FD
:0E653C0067282243616765795F485443222C2B
:0E654A002231323334353637383930222920A9
:0E65580020776966692E7374612E636F6E6E14
:0865660065637428290D0A0089
:0E656E00736B3D6E65742E63726561746543D8
:0E657C006F6E6E656374696F6E286E65742EA7
:0A658A005443502C2030290D0A0064
:0E659400736B3A6F6E282272656365697665D7
:0E65A200222C2066756E6374696F6E28736319
:0E65B0006B2C206329207072696E7428632999
:0965BE0020656E6420290D0A001D
:0C65C700736B3A636F6E6E65637428009E
:0365D3002C220077
:0565D60022290D0A005E
:0E65DB00646F66696C652822676F6F676C6578
:0D65E90074696D652E6C756122290D0A0024
:0E65F6002D2D202A2A44454255472A2A206C82
:0E660400656E677468206F66204320697320FE
:0566120025640D0A00E3
:036617000D0A0069
:04661A004A616E0063
:04661E00466562006B
:046622004D61720054
:04662600417072004D
:04662A004D61790045
:04662E004A756E003B
:046632004A756C0039
:046636004175670043
:04663A005365700034
:04663E004F63740032
:046642004E6F760021
:046646004465630044
:0D664A00736B3A636C6F736528290D0A00AD
:0E6657006E6F64652E64736C65657028323753
:0B66650030303030303030290D0A009A
:0E6670002D2D202A2A44454255472A2A20690A
:0A667E00762069732025730D0A00D1
:0E6688002573202568687520257320256C7504
:0E66960020256C7520256420256420313030CD
:0E66A400202D31362E3132373130302C353149
:0866B2002E3234313330300088
:0E66BA00736B3A73656E6428227944726970BE
:0866C80028414553293A200046
:0566D0002530327800C6
:0266D5002000A3
:0E66D700736B3A73656E6428227944726970A1
:0366E5003A200058
:0966E8005C725C6E22290D0A00AF
:0666F10036463559500049
:0E66F700696E74657273656374696E672E4414
:0B67050075636B444E532E6F726700EB
:0667100031373631310083
:086716004747794472697000E5
:0669C00036463559500077
:0E69C600696E74657273656374696E672E4442
:0B69D40075636B444E532E6F7267001A
:0669DF00313736313100B2
:0869E500474779447269700014
:0E69ED007844727C5032672641455372405BFD
:0269FB004B212E
:0169FD000099
:0469FE00CED5E6E527
:076A02000606060606060465
:086A09000000DFBE000720427F
:016A11000183
:046A1200F40100008B
:0E6A160030313233343536373839414243445B
:0E6A2400454647484A4B4C4D4E505152535434
:046A32005557585903
:072C510075100075110075FC
:062C58001200751300C21A
:042C5E0009C20AC2DB
:0C2C62000B43F54043F10275FB8243F880
:0E2C6E00C043F44043A908AFB95307F78FB92C
:092C7C00D2EAC28FD2ABD2AF2222
:0E2C8500AF82AE83ADF0FCC3EF9417EE940067
:0E2C9300ED9400EC9400400D74609F74E39E7D
:072CA10074169DE49C500332
:032CA800022D6F8B
:022CAB007B00AC
:0E2CAD00C374A69F74909E74079DE49C501003
:0E2CBB000BECC313FCED13FDEE13FEEF13FF45
:022CC90080E2A7
:0C2CCB0078BEEFF208EEF208EDF208EC23
:0E2CD700F290000BE4F5F0C007C006C005C087
:0B2CE50004C003124B18858214858385
:052CF0001585F016F54A
:0C2CF50017D003D004D005D006D007781B
:0C2D0100BEEFF208EEF208EDF208ECF272
:0E2D0D009021D7E4F5F0C003124B18AC82AD54
:0C2D1B0083AEF0FF7867741BF20874B7F9
:0E2D2700F208E4F208F28C828D838EF0EF1237
:0D2D3500323DAC82AD83AEF0FFD003EC2543
:082D420014FCED3515FDEE3522
:062D4A0016FEEF3517FF35
:0B2D5000ED54FE7006EE7003EF601003
:0E2D5B000BEFC313FFEE13FEED13FDEC13FCA4
:022D690080E503
:042D6B008BFC8CFA57
:012D6F002241
:092D7000AF827E00BF0102800F5A
:052D7900BF0202800E04
:052D7E00BF0302800DFF
:052D8300BF0410800CEC
:042D88007E38800A07
:042D8C007E18800627
:042D90007E3080020F
:022D94007E10AF
:082D9600744755FB4EF5FB22CA
:0A2D9E00AF82BF020543FB0480076B
:072DA800AFFB5307FB8FFB9B
:012DAF002201
:092DB000E511C3951014F582220F
:082DB900AE82AF837857E2FD02
:0A2DC100ED6026E51024A9FBE434C0
:0C2DCB00F3FC8E828F83E0FAA3AE82AF8F
:0C2DD700838B828C83EAF0E51004FC8CF6
:072DE300101D439A0880D780
:012DEA0022C6
:0A2DEB00AF82E51024A9F582E4345C
:0A2DF500F3F583EFF0E51004FF8F03
:052DFF0010439A0822B8
:082E0400E513C39512F58222CB
:082E0C00E51224A9F582E4346B
:0A2E1400F4F583E0FFE51204FE8EE2
:042E1E00128F82226B
:0E2E2200C0E0C082C083C007C0D075D000E5FC
:062E300010B5110280182C
:0A2E3600C2EAE51124A9F582E43494
:0A2E4000F3F583E0F5F9E51104FF56
:042E4A008F1180075D
:072E4E00AF9A5307F78F9ABA
:0B2E5500D0D0D007D083D082D0E03274
:0E2E6000C0E0C082C083C007C006C005C00429
:0E2E6E00C003C0D075D000C28FE5F8FF541825
:042E7C00600280313F
:0A2E8000AD127E00AB137C00EDC321
:0A2E8A009BFDEE9CFE1DBDFF011E26
:0A2E9400ED6016E51324A9F582E4B1
:0A2E9E0034F4F583E5F9F0E51304C0
:052EA800FE8E138010F6
:042EAD00D20B800CB8
:062EB100EF30E402D20A3A
:062EB700EF30E302D20936
:0E2EBD00D0D0D003D004D005D006D007D083EB
:052ECB00D082D0E032CE
:082ED000E511C39510F5822203
:0C2ED800AC82AD83AEF0FF7B00785CE4C0
:012EE400F2FB
:0A2EE500785BE2235401FA70527882
:0C2EEF0058E225E0F208E233F208E2337A
:0C2EFB00F208E233F27858C3E2F5F0EC84
:0E2F070095F008E2F5F0ED95F008E2F5F0EE39
:0C2F150095F008E2F5F0EF95F05014780C
:0C2F21005BE2C313F218E213F218E21393
:072F2D00F218E213F2800C20
:0A2F3400785CE22401F2785CE2FB15
:022F3E0080A56C
:0C2F40007858C3E2F5F0EC95F008E2F5DB
:0E2F4C00F0ED95F008E2F5F0EE95F008E2F5F4
:0C2F5A00F0EF95F0401C7858D3E29CF496
:0E2F6600B3FCB308E29DF4B3FDB308E29EF4A1
:082F7400B3FEB308E29FF4FF75
:0C2F7C00785BE2C313F218E213F218E2D3
:0E2F880013F218E213F28B021BEA70AC8C827B
:062F96008D838EF0EF2296
:0605CC00751800C20CC20C
:0405D2000DC20EC286
:0105D6000F15
:0C2F9C00C025C0E0C0F0C082C083C007A8
:0E2FA800C006C005C004C003C002C001C000C6
:0E2FB600C0D0E4F5D0F59BE5E930E4187403D3
:0B2FC400B5180875821E12305B800BF0
:0B2FCF007402B5180675821F12305BFB
:0B2FDA00E5E930E50675822012305B4F
:0A2FE500300C427403B51802804F4F
:0C2FEF007402B5182390DF3BE0FFBF0D1B
:0E2FFB001B90DF3CE0FF20E33A90DF12E0FF86
:08300900530707BF0702800610
:0630110074F625A450270F
:0A30170090DF3BE0FFBF0D028003D5
:0330210075E10452
:0630240075822112305BF1
:0A302A00E5E930E705D20F75E97FF4
:0A303400E5E930E605D20E75E9BFAC
:0E303E00D0D0D000D001D002D003D004D005F5
:0D304C00D006D007D083D082D0F0D0E0D0E5
:0230590025321E
:0C305B00AF8290DF3BE0FEBE1202801E40
:0A30670090DF3BE0FEBE0102801482
:0E30710090DF3BE0FE600D90DF3BE0FEBE1501
:03307F00028003C9
:0330820075E100F5
:0C30850075D682AED15306FD8ED17518B1
:0D3091000290DF127407F08F821233BA3004
:0B309E000D12AF9A5307FE8F9A85A415
:0330A9001A85186D
:0530AC0019751801C2B6
:0130B1000D11
:0A30B20075E9CFAF18BF0102801AC4
:0530BC00BF02028005C7
:0530C100BF03158008AB
:0830C60043D60275E102800B04
:0830CE0043D60275E103800303
:0330D60075E1049D
:0330D900C20C2204
:0630DC00D20C439B03220D
:0530E200D20D1230DCEC
:0430E700200CFD229A
:0A30EB0085191890DF12E0FF70074E
:0730F500F5A2851AA4F5A362
:0A30FC00439A01AF18BF02028005DD
:05310600BF031080086A
:08310B0043D60275E1028006C3
:0631130043D60275E10342
:013119002293
:0E311A00124F0990DF147414F090DF13740547
:0E312800F090DF127407F0439A017591F0D217
:08313600AF90F8067413F022BB
:0C313E00AE82AF83785DE2601290DF1279
:0C314A00E4F075A200785DE2F5A475A326
:03315600008006F0
:0631590090DF127407F084
:0E315F007CD97D0074DF2DFC90F800ECF07C34
:0E316D00D990F801ECF08F0590F802EDF0908B
:0D317B00F803EEF090DF02E0FF0F0F0F9061
:0B318800F805EFF090F8047480F09060
:09319300F8077410F0751802220F
:0E319C00AE82AF838F0590F800EDF090F80141
:0E31AA00EEF07ED97F0074DF2FFE90F802EE6B
:0E31B800F07ED990F803EEF090DF02E0FF0FFA
:0C31C60090F805EFF090F8047420F090F1
:0931D200F8077440F0751803229F
:0C31DB00AFF0AE83E5827861F208EEF2FE
:0C31E70008EFF2785EE2FA08E2FB08E272
:0A31F300FC78617964E2F308E20958
:0531FD00F308E209F3F4
:0E3202008A828B838CF0125BF4FFA3AA82AB4E
:0C321000837864E2F58208E2F58308E2AE
:0E321C00F5F0EF123773A31818E582F208E5FB
:0C322A0083F2EF70D37861E2F58208E2D5
:07323600F58308E2F5F02228
:0C323D00AF82AE83ADF0FC786BEFF208BE
:0E324900EEF208EDF208ECF27A007B007E0057
:043257007F007D2057
:0A325B00786EE2235401FC24FF9278
:0A32650010786BE225E0F208E23376
:0E326F00F208E233F208E233F2EA2AFAEB3315
:0C327D00FBEE33FEEF33FF301003430282
:013289000143
:0C328A007867C3E2F5F0EA95F008E2F581
:0E329600F0EB95F008E2F5F0EE95F008E2F5A9
:0C32A400F0EF95F040227867D3E29AF436
:0E32B000B3FAB308E29BF4B3FBB308E29EF45A
:0C32BE00B3FEB308E29FF4FF786BE2441B
:0232CA0001F20F
:0C32CC00DD8D786BE2F58208E2F58308E6
:0632D800E2F5F008E2221D
:0705D700751B00751C007587
:0605DE001D00751E00C2A5
:0405E40011C21278B6
:0905E8006FE4F208F208F208F2D7
:0C32DE00125C1090DF027413F030110934
:0932EA00786F90DF06E2F0801716
:0E32F30090671EE493FC740193FD740293FE39
:09330100740393FF90DF06ECF069
:07330A0012311A1230DC221F
:0B331100123471E582540304F582229F
:0A331C00E51EC3951D14540FF58241
:013326002284
:0A332700E51DC3951E540FF5822228
:0C33310012331CE5827005900000801132
:0A333D00E51D75F014A424EBFE74E6
:07334700F535F08E82F583DD
:01334E00225C
:0A334F00740FB51D05751D00800206
:02335900051D50
:04335B001230DC222E
:0A335F00E51CB51B0590000080106E
:0A336900E51B75F016A424A9FEE48C
:0633730034F58E82F583A3
:013379002231
:0A337A007402B51B05751B008002EC
:02338400051B27
:013386002224
:07338700E51DB51E028015D3
:0A338E00E51E75F014A424EBF5828F
:0B33980074F535F0F58312319C8016AF
:0A33A300E51C75F016A424A9F582BC
:0A33AD00E434F5F583785DE4F212D4
:0233B700313EA5
:0133B90022F1
:0B33BA00AF82BF21061233870234707F
:0A33C500BF1E33740FB51E05751E00
:0333CF0000800279
:0233D200051ED6
:0A33D400E51C75F016A424A9FDE421
:0C33DE0034F5FEC006C005123311AC82AD
:0C33EA00D005D006785DECF28D828E8359
:0533F60012313E80755C
:0A33FB00BF1F6CE51C75F016A4243A
:07340500A9FDE434F5FE20EF
:0C340C00123BC006C005124FD0D005D006
:0A34180006402EE51DB51E02801AC5
:0E342200C006C005123311AC82D005D006786A
:0C3430005DECF28D828E8312313E800B29
:0B343C00785DE4F28D828E8312313E39
:023447008027DC
:0C3449008D828E83E060157402B51C04B7
:043455007E00800471
:04345900E51C04FE6C
:06345D00EEB51B02800227
:023463008E1CBD
:05346500123387800610
:06346A00BF2003123387AE
:013470002239
:04671E0080000000F7
:0604BC00E478FFF6D8FD14
:08347100E5B4540C600280F880
:0C34790085BC82743055B44407F5B422C1
:0A348500AF827873E27003EF600974
:09348F007873E2B40308BF800564
:05349800787374AAF234
:0B349D008FBC7873E2F5BC1234711292
:0634A800347112347122A0
:0C34AE00AD82AE83AFF07879EDF208EE4D
:0C34BA00F208EFF28D048E038F0278748C
:0B34C600E2FD08E2FE08E2FF8C798BBB
:0434D1007A8A7B7800
:0734D50077E2F57C08E2F547
:0134DC007D72
:0534DD00AB7CAC7D1585
:0734E2007C74FFB57C0215AC
:0134E9007D65
:0E34EA00EB4C60258D828E838FF0125BF4FC1C
:0A34F800A3AD82AE83857982857A48
:0B35020083857BF0EC123773A38582F9
:06350D007985837A80CA73
:0C3513007879E2F58208E2F58308E2F521
:02351F00F02298
:0C352100AFF0AE83E582787FF208EEF296
:0C352D0008EFF2787FE2FA08E2FB08E207
:09353900FC787DE2F57908E2F569
:013542007A0E
:05354300AE79AF7A151E
:073548007974FFB57902154B
:01354F007A01
:0C355000EE4F60138A828B838CF0787C35
:0B355C00E2123773A3AA82AB8380DC6D
:0C356700787FE2F58208E2F58308E2F5C7
:02357300F02244
:08049A00797FE94400601B7A40
:0504A200019069C07823
:0304A7002075932A
:0A04AA00F8E493F2A308B80002057D
:0804B40093D9F4DAF27593FF0D
:0905F100788274E4F208740CF243
:0C35750075828F125C24AE82AF8378BE9A
:0E358100EEF208EFF208E4F208F2900EA6E473
:0E358F00F5F0124B18AC82AD83AEF0FF74FF66
:0D359D002CFC74033DFDE43EFEE43FFF788E
:0C35AA006774FFF2087407F208E4F208EE
:0C35B600F28C828D838EF0EF12323D22E9
:0C35C200AE82AF837882EEF208EFF222B6
:0C35CE00AE82E583FF3395E0FDFC7882BF
:0C35DA0079BEE2F308E209F309E4F3090A
:0E35E600F38E828F838DF0EC124B18AC82AD09
:0E35F40083AEF0FF74FF2CFC74033DFDE43E3B
:0C360200FEE43FFF78CE74FFF20874076E
:0E360E00F208E4F208F28C828D838EF0EF1247
:03361C004D182224
:0C361F00AFF0AE83E5827887F208EEF28F
:0C362B0008EFF27887E2FA08E2FB08E200
:01363700FC96
:0E3638008A828B838CF0125BF460070ABA0062
:04364600F10B80EE16
:0B364A007884E2FD08E2FE08E2FF7851
:093655008AEAF208EBF208ECF23B
:0E365E008D828E838FF0125BF4FCA3AD82AEE2
:0C366C0083788AE2F58208E2F58308E228
:0E367800F5F0EC123773A31818E582F208E59E
:0C36860083F2EC70D37887E2F58208E252
:07369200F58308E2F5F022C8
:0C369900AD82AE83AFF07890EDF208EE49
:0A36A500F208EFF2788D7993E2F35A
:0C36AF0008E209F308E209F37893E2F561
:0E36BB008208E2F58308E2F5F0125BF4700776
:0736C9008D828E838FF02239
:0E36D0008D828E838FF0125BF4700302376CD4
:0B36DE007893E2FA08E2FB08E2FC8DA2
:0436E900798E7A8FCD
:0136ED007B61
:0736EE00857982857A83854E
:0636F5007BF0125BF4F50E
:0C36FB007C60438A828B838CF0125BF4AD
:0B370700F57D6036C005C006C007E578
:073712007CF57E3395E0F524
:093719007FE57DFD3395E0FFE53D
:0A3722007EC39DFDE57F9F4DD0079B
:0A372C00D006D005700F0579E4B552
:043736007902057A95
:07373A000ABA00B00B80ADDC
:0C3741008A828B838CF0125BF4700E788F
:0C374D0090E2F58208E2F58308E2F5F056
:01375900224D
:05375A000DBD00010E91
:0B375F007890EDF208EEF208EFF202A5
:02376A0036D057
:07376C0090000075F000223F
:0E37730020F71030F6118883A88220F507F6A3
:05378100A88375830020
:013786002220
:03378700F280F7D6
:02378A00F0222B
:0605FA00751F00C213C2D0
:06060000147897E4F27883
:0906060098E4F2789974FFF27E89
:04060F00157F3878A3
:060613009AEEF208EFF27E
:0C378C0078AA740AF27582011240467897
:0B379800AB7440F27582041240787898
:0B37A300AA7440F275820412404678C0
:0537AE009974FFF222F6
:0E37B30090F72CE0FF53077FBF215590F730B1
:0E37C100E0FEA3E0FF4E6006BE0147BF0044DD
:0A37CF0090F72DE0FFBF2002800AF2
:0537D900BF2102801673
:0537DE00BF2232802231
:0737E30078A87496F2087447
:0A37EA00F8F2900007124011801F52
:0737F40078A67496F2087438
:0A37FB00F8F2900007123FF0800E74
:0C38050090F72EE0FEA3E07897EEF212A0
:02381100403243
:013813002292
:013814002291
:013815002290
:0C381600789AE2F58208E2F58312048B38
:0E38220090F896E0FCA3E0FDA3E0FEA3E0FF1B
:0D383000BC4D1DBD011ABE0017BF001420C5
:05383D001411D2141269
:0E3842004CB8AC82AD83AEF0FF90F72BECF0EB
:013850002255
:0A38510090F89DE0FFBF1002800513
:05385B00758200801AD7
:0E38600090DE0E7404F090DE14E0FF30E009FC
:09386E0090DE16E0FFF5828003F4
:0338770075820057
:01387A00222B
:0E387B0090DE0E7404F090DE28E0FF90DE1662
:0C388900E0FE700890DE14E054FEFEF03B
:05389500D2178F822212
:0A389A00AE82AF83789C79A0E2F3C0
:0B38A40078A1EEF208EFF2758204122A
:0E38AF003A4590DE16E0FF700890DE14E054FB
:0338BD00FEFFF01B
:0138C00022E5
:0E38C10090DE0E7404F090DE11E0FF4401F082
:0838CF007440B51F03D3800112
:0138D700C32D
:0538D80092159213752A
:0538DD001F00D21722BC
:0738E200123ABD3014191267
:0E38E9004CB8AC82AD83AEF090F72BE0FFEC54
:0A38F700C39FFC24B95003124135B1
:0A39010090F89DE0FFBF1002800265
:02390B008079C1
:0B390D0090DE0E7404F0E51F700B301C
:0A391800130B90DE11E0FF20E10325
:033922001238C197
:0A39250090DE0E7401F07898799995
:09392F00E2F5F0E3B5F002804E70
:0E39380090DE11E0FF20E04690DE2274A1F048
:0E3946007420F0E4F090DE22F090DE22F0908B
:0C395400DE22F090DE227402F0E4F07835
:0C3960009890DE22E2F090DE22E4F0906D
:0C396C00DE11E04401F07898E2FF530700
:0A397800837898EFF27898E2FF7868
:0439820099F2D217CD
:01398600221E
:0A39870090F89DE0FFBF10028005DC
:05399100758200802793
:0E39960090DE0E7404F090DE11E0FF30E112BE
:0939A400EF30E00575820080108F
:0939AD007440C3951FF5828007E8
:0739B6007480C3951FF58228
:0139BD0022E7
:0439BE00AE82AF83A3
:0A39C200789DE260517440C3951F28
:0A39CC00FD789DC3E29D5004789D34
:0239D600E2FD10
:0A39D80078A3EDF278A4EEF208EFF8
:0E39E200F2758204C007C006C005123A7AD002
:0C39F00005D006D007ED2EFEE43FFF7866
:0939FC009DE2C39DF2ED251FF5CB
:0A3A05001F7440B51FB7C007C006CC
:093A0F001238C1D006D00780AACC
:013A1800228B
:0B3A1900E58290DE28F0051F7440B528
:053A24001F031238C170
:013A2900227A
:063A2A007897E2F582220C
:0A3A3000AF827898E2547C4F78983A
:023A3A00F22276
:083A3C00AF827898E24FF222FC
:0E6722001201000202000020FB1F00220000F6
:04673000010203015E
:0E67340009024300020100C032090400000106
:0E6742000202010005240020010424020205C9
:0E675000240600010524010001070581030A4B
:0E675E00000109040100020A00000007050402
:0B676C0002400000070584024000000E
:01677700041D
:046778000403090409
:0E677C00260350006F006C006F006C0075006B
:0E678A00200043006F00720070006F0072006C
:0A6798006100740069006F006E00DC
:0C67A2000C0357006900780065006C00D3
:0267AE0078670A
:0267B0007C6704
:0267B200A267DC
:0267B400E603FA
:076A360080250000000008AC
:04061900C216C2172C
:013A4400225F
:0E3A4500AF82E4CF25E0CF33FE74202FFF7454
:0A3A5300DE3EFE78A0E2FD78A1E25D
:043A5D00FB08E2FC84
:0E3A6100ED60131D8F828E83E0FA8B828C83C2
:083A6F00F0A3AB82AC8380EAF6
:033A7700D2172241
:0E3A7A00AF82E4CF25E0CF33FE74202FFF741F
:0A3A8800DE3EFE78A3E2FD78A4E222
:043A9200FB08E2FC4F
:0E3A9600ED60141D8B828C83E0FAA3AB82AC32
:093AA400838F828E83EAF080E931
:013AAD0022F6
:0C3AAE00C21690DE017401F090DE0B7473
:033ABA0007F022F0
:0D3ABD0012416E4014AFBE53077F8FBE1242
:083ACA00417790F89DE4F0C281
:043AD20016023CE2BA
:0E3AD60090F89DE0FF701312417F43BE800008
:0C3AE40000000090F89D7402F0123AAE51
:0E3AF00090DE06E0FF90DE02E0FEEF30E00226
:023AFE00D216DE
:0E3B0000EF30E21690F89D7404F090F89EE409
:0C3B0E00F0C007C006123AAED006D00787
:063B1A00EF30E102C216CB
:073B2000EE20E003023CE28D
:0C3B270090DE0EE4F090DE11E0FFD217FB
:0E3B3300EF30E40B90DE117480F090F89EE409
:013B4100F093
:0D3B4200EF30E20990DE11E4F090F89EF003
:073B4F00EF20E003023C78C7
:0A3B560090F89EE0FEBE010280031D
:033B6000023BFE27
:0E3B630090DE16E0FE90F734E0FCA3E0FD8E4D
:0C3B7100027B00C3EC9AED9B50028C0616
:073B7D0078A0EEF2789E79BA
:0C3B8400A1E2F308E209F3758200C0071B
:0C3B9000C006123A45D006D007789EE22D
:0E3B9C002EF208E23400F290F734E0FCA3E0D1
:0E3BAA00FD7B0090F734ECC39EF0ED9BA3F082
:0E3BB80090F734E0FDA3E0FE4D600990DE11B1
:063BC6007440F0023C789F
:0E3BCC0090F72CE054606007C007123816D046
:013BDA0007E3
:0D3BDB0090DE0EE4F090F89EE0FE70099080
:083BE800DE117468F0023C7864
:0E3BF00090DE117448F090F89EE4F0023C78EC
:0B3BFE0090DE16E0FEBE086C78A1749B
:073C09002CF20874F7F278B9
:0C3C1000A07408F2758200C007123A454B
:0E3C1C00D00790F89EE4F090F72CE054607012
:0A3C2A0009C007123CE3D007800731
:073C3400C0071237B3D007EF
:0D3C3B0090DE0EE4F090F89EE0FE70089020
:073C4800DE117460F0802919
:0E3C4F00BE012690F734E0FDA3E0FE4D6008B4
:083C5D0090DE117440F08013A9
:0D3C650090DE11744AF090F89EE4F08006A5
:063C720090DE117440F029
:0D3C7800EF20E16690F89EE0FEBE025E9037
:0E3C8500F734E0FDA3E0FEC3ED9420EE9400C2
:0B3C930050097F0A90F89EE4F08004C6
:043C9E007F027D2004
:073CA20078A3EDF2789E7992
:0C3CA900A4E2F308E209F3758200C007F2
:0E3CB500C005123A7AD005D00790DE11EFF06C
:0B3CC300789EE22DF208E23400F2903F
:0E3CCE00F734E0FEA3E0FF7C0090F734EEC375
:063CDC009DF0EF9CA3F037
:013CE20022BF
:0A3CE30090F736E4F090F737F09008
:0B3CED00F72DE0FF24F35003023F9886
:073CF800EF2F2F903CFF733A
:073CFF00023EC2023F8402F5
:063D06003F98023F840219
:063D0C003F98023DFD029C
:063D12003D26023F98026D
:063D18003E5B023E1E02AC
:063D1E003E80023F980206
:023D24003F89D5
:0E3D260090F72EE0FEA3E0FFFC7D00BC01053F
:053D3400BD0002801338
:083D3900BC0205BD0002802060
:083D4100BC0305BD0002803B3C
:033D4900023DC870
:073D4C00789E7422F2087456
:0C3D530067F290F7347412F0A3E4F00261
:023D5F003DD550
:063D6100EE6003023F9832
:073D6700789E7434F2087429
:0C3D6E0067F2906736E493FCA3E493FD39
:0A3D7A0090F734ECF0A3EDF0805157
:0E3D84008E047D00906777E493FB7A00C3EC19
:083D92009BED9A4003023F98EB
:0C3D9A00E4CE25E0CE33FFEE24AEF5822F
:0C3DA600EF3467F583E493FEA3E493FF81
:0C3DB200789EEEF208EFF28E828F83E024
:0A3DBE00FE90F734F0A3E4F0800D4E
:0B3DC80012381490F89EE0FF70030218
:023DD3003F9817
:0E3DD50090F732E0FEA3E0FF90F734E0FCA38D
:0E3DE300E0FDC3EE9CEF9D500890F734EEF02B
:033DF100A3EFF04D
:093DF40090F89E7402F0023F9861
:0E3DFD0090F72EE0FEA3E0FF90DE00EEF0EE69
:063E0B0060047F08800244
:023E11007F042C
:093E130090F89DEFF0124032021C
:023E1C003F98CD
:0E3E1E0090F72EE0FEA3E0FFBE0005BF0002FD
:023E2C0080080C
:083E2E00BE0121BF001E80113E
:0E3E360090F89DE0FF24F7501690F89D740858
:033E4400F0800EFD
:0B3E470090F89D7410F012378C80037F
:033E5200023F9894
:063E5500124032023F980A
:0C3E5B0090F89DE0FFBF10047F01800282
:023E67007F00DA
:083E690090F736EFF078A67423
:0A3E710036F20874F7F29000011217
:053E7B003FF0023F983A
:083E800090F89DE0FFBF100067
:053E88005003023F9809
:0B3E8D0090F730E0FEA3E0FF7C347DE6
:0C3E9800678C828D83A3A3A3A3E493FD99
:0C3EA4007C00C3EE9DEF9C4003023F98A1
:073EB00078A67436F20874D5
:093EB700F7F2900001123FF00245
:023EC0003F9829
:0E3EC20090F72CE0541FFE7F00BE0005BF00ED
:033ED00002801459
:083ED300BE0105BF0002802EB4
:093EDB00BE0206BF0003023F54C1
:033EE400023F8218
:093EE70012417450047F018002B5
:023EF0007F0051
:083EF20090F736EFF078A6749A
:0A3EFA0036F20874F7F2900002128D
:053F04003FF0023F98B0
:083F090090F89DE0FFBF1000DD
:0E3F1100500E90F730E0FEA3E0FF4E6003027A
:023F1F003F98C9
:0B3F210090F730E0FEA3E0FF7C347D51
:0C3F2C00678C828D83A3A3A3A3E493FD04
:0B3F38007C00C3EE9DEF9C4002805512
:073F430078A67436F2087441
:0A3F4A00F7F2900002123FF08044ED
:0E3F540090F72EE0FEA3E0FFEE540F60028017
:013F6200025C
:023F63008033A9
:083F650090F89DE0FFBF100081
:043F6D005002802757
:073F710078A67436F2087413
:0A3F7800F7F2900002123FF08016ED
:023F82008014A9
:053F8400124032800F25
:073F890078A67436F20874FB
:083F9000F7F2900002123FF06D
:013F98002206
:033F9900A216224B
:0C3F9C00AF8CA2BD9218C2BD438C10AEC9
:063FA8008C5306FE8E8C16
:0E3FAE00758900C2C5D2BDAEBE74FC5E440172
:0E3FBC00FE8EBE000000E5BE54036007D290EA
:053FCA00438701C290D5
:093FCF00C2BDE58930E702C2160B
:0C3FD800301609C007124174D00750CA0F
:0C3FE400E5BE30E6FB8F8CA21892BD22D7
:0E3FF000AE82AF8390F89E7402F090F734EE2C
:0C3FFE00F0A3EFF078A6E2FE08E2FF78E6
:07400A009EEEF208EFF22226
:0E401100AE82AF8390F89E7401F090F734EE0B
:0C401F00F0A3EFF078A8E2FE08E2FF78C2
:07402B009EEEF208EFF22205
:0E40320090F89E7401F090F734E4F0A3F022B1
:0640400090F89EE4F0225E
:0C404600E58290DE0EF078AAE2FE7F001A
:0E40520074072EFEE43FFFC423CEC423541F88
:0C4060006ECE541FCE6ECE30E40244E061
:0C406C0090DE10EEF090DE127401F022E5
:0C407800E58290DE0EF078ABE2FE7F00E7
:0E40840074072EFEE43FFFC423CEC423541F56
:0C4092006ECE541FCE6ECE30E40244E02F
:0C409E0090DE13EEF090DE157401F022AD
:016A3D000058
:016A3E000057
:05061D0078AC7480F2CE
:0740AA001240D11240BB12CD
:0640B1004CD9124DED2276
:0440B70012415C2234
:0740BB00AFBE5307FB8FBEEF
:0E40C200E5BE30E6FB75C68043BE0475C70040
:0140D00022CD
:0A40D10075FF0075A00675F799222F
:0C40DB00124CB8AC82AD83AEF0FF78ACA4
:0E40E700D3E29CF4FC24E65044E5FFC45401EF
:0C40F500FF24FF921A400943FF1075825F
:0441010002125C94B6
:0E410500AFF75307EF8FF7AFFF5307EF8FFFB2
:0C411300758201125C94A2A4921943F77B
:07411F0010301A0343FF10EA
:0C412600124CB8AC82AD83AEF0FF78AC58
:02413200ECF2AD
:014134002268
:0E413500C2AF75D69F75820A125C9475FF00AA
:0E41430075FE0075FD0075F50075F40075F34E
:0B41510000900064124CE40200062203
:0E415C00E5FF20E20C75820A125C9430A2038B
:03416A00124135CA
:01416D00222F
:06416E001240DBA2192241
:03417400A2A322E1
:08417700AFFF5307FE8FFF228A
:06417F00D2A043FF012263
:0E418500AA83AB828BF090F0ADE0A4F8A9F015
:0E4193008AF0E0A429F98BF0A3E0A429F583BB
:0441A10088822222CC
:0D41A500E58290F7E8F09067B693F582226E
:0641B200E4F552F553F59F
:0341B80054F55566
:0A41BB00C3E5529404E5539400E5B7
:0A41C500549400E5559400400302F5
:0241CF0042BCF0
:0941D100E55225E025E0F54F243C
:0541DA0038F550E4344B
:0441DF00F7F551E5BA
:0441E300522552F51A
:0541E70056E55333F51D
:0541EC0057E55433F516
:0541F10058E55533F50F
:0441F60059E556250C
:0441FA0056F556E53B
:0541FE005733F557E501
:054203005833F558E5F9
:054208005933F559785F
:09420D00B1E22556F58208E23504
:0842160057F583E08550828515
:07421E005183F0E54F042479
:0542250038F550E434FF
:06422A00F7F551740125B7
:0842300056FCE43557FDE435AE
:0542380058E43559783F
:0C423D00B1E22CF58208E23DF583E0853B
:094249005082855183F0740225B6
:064252004F2438FEE434A5
:09425800F7FF74022556FAE43563
:0742610057FBE43558E4357A
:0A4268005978B1E22AF58208E23B22
:0C427200F583E08E828F83F07403254FEB
:0A427E002438FEE434F7FF74032532
:0842880056FAE43557FBE4355A
:0642900058FCE4355978EA
:0C429600B1E22AF58208E23BF583E0FD6E
:0A42A2008E828F83F00552E4B552BE
:0742AC000C0553B553070593
:0542B30054B5540205A2
:0142B80055B0
:0342B9000241BB04
:0442BC0085525A8548
:0342C000535B85C8
:0342C300545C85C3
:0242C600555D44
:0A42C800C3E55A942CE55B9400E571
:0A42D2005C9400E55D9400400302D7
:0242DC00448D0F
:0442DE00855A568522
:0342E2005B5785A2
:0342E5005C58859D
:0442E8005D59E4F543
:0442EC0052F553F53F
:0342F00054F5552D
:0A42F300C3E5529404E5539400E57E
:0A42FD00549400E5559400503AE592
:054307005224E9FAE573
:05430C005334F7FBAF84
:0A431100561FEF2F25E0FFE552FED6
:0A431B002F2438F582E434F7F5830F
:0B432500E0FF8A828B83F00552E4B5B4
:05433000520C0553B51D
:0543350053070554B51B
:04433A0054B705551A
:02433E0080B34A
:09434000E55A540360030243DD59
:0B43490090F7E9E0FA90F7EAE0FD9041
:08435400F7E9F090F7EBE090AF
:08435C00F7EAF090F7ECE090A5
:0B436400F7EBF090F7ECEAF08D82120E
:0A436F0041A5AF8290F7E9EFF0904E
:0B437900F7EAE0F5821241A5AF829048
:0B438400F7EAEFF090F7EBE0F5821293
:0A438F0041A5AF8290F7EBEFF0902C
:0B439900F7ECE0F5821241A5AF829026
:0A43A400F7ECEFF090F7E9E0FFE519
:0943AE005DC313FEE55C13FDE59F
:0A43B7005B13FCE55A13FBEEC31381
:0C43C100ED13FDEC13FCEB13FB24B6F530
:0C43CD0082EC3468F583E493FE620790F4
:0443D900F7E9EFF021
:0A43DD00E55AFC25E025E0FF243836
:0C43E700FDE434F7FE1C1C1C1CEC2C2513
:0A43F300E0FC2438F582E434F7F50D
:0E43FD0083E0FB90F7E9E062038D828E83EB94
:0A440B00F0EF042438FDE434F7FE5E
:0A441500EC042438F582E434F7F5D6
:0E441F0083E0FB90F7EAE062038D828E83EB70
:0A442D00F074022F2438FDE434F788
:0A443700FE74022C2438F582E434F0
:0C444100F7F583E0FB90F7EBE0FA620374
:0C444D008D828E83EBF074032F2438FE68
:0A445900E434F7FF74032C2438F557
:0C44630082E434F7F583E0FD90F7ECE014
:0C446F00FC62058E828F83EDF0055AE49C
:06447B00B55A0C055BB50B
:054481005B07055CB5BE
:044486005C02055D72
:03448A000242C823
:01448D00220C
:0C448E00E58290F7EDF0C454F0FF7E00D2
:03449A00BE04005D
:0C449D005048EE2E25E0FD2FF5797B0045
:0344A900BB040051
:0C44AC005036C00778AFE22DFA08E23469
:0C44B80000FFEB2AFAE43FFFEB2579241B
:0A44C40038F582E434F7F583E0F5E3
:0A44CE007A8A828F83E0FCE57A62AF
:0C44D800048A828F83ECF00BD00780C5B3
:0344E4000E80B394
:0144E70022B2
:0244E8007F0053
:0344EA00BF04000C
:0644ED00504A8F067D001D
:0344F300BD040005
:0C44F600503EED2D25E0FC78AFE22CFCE0
:0E45020008E23400FBEE2CFCE43BFB8C828BC9
:0E45100083E0F582C007C006C005C004C003EA
:0E451E001241A5AA82D003D004D005D006D049
:0A452C00078C828B83EAF00D80BD3E
:034536000F80B142
:01453900225F
:0C453A0078AFE2FE08E2FF74012EFCE402
:0C4546003FFD8C828D83E0F57974052E1A
:07455200F57AE43FF57B85DB
:0A4559007A82857B83E08C828D83DB
:0E456300F074092EFCE43FFD8C828D83E08510
:0A4571007A82857B83F0740D2EF52D
:06457B007AE43FF57B85A8
:0A4581007A82857B83E08C828D83B3
:08458B00F0857A82857B83E54F
