:0404000002048D3233
:01040B0032BE
:0104130032B6
:03041B00022E6B43
:0104230032A6
:03042B0002063393
:010433003296
:01043B00328E
:010443003286
:01044B00327E
:010453003276
:01045B00326E
:03046300024C9EAA
:01046B00325E
:03047300022E2D29
:01047B00324E
:03048300022FA79E
:0E04E60090F208E4F0A3F090F20AE4F0A3F024
:0504F400D200D201C29C
:0404F90002C203D266
:0404FD0004D205D24E
:070501000678007414F27883
:0A050800017401F2780274CEF2785B
:0A0512000374D5F2780474E6F27861
:09051C000574E5F27806E4F278BA
:0A052500077464F2780874C7F278D6
:0A052F000974D1F2780A74BCF208D6
:0C0539007434F208E4F208F2780E74F456
:0C054500F2087401F208E4F208F27812E7
:0D05510074F4F2087401F208E4F208F27884
:0C055E001674F4F2087401F208E4F208CC
:0C056A00F2781AE4F208F208F208F278C5
:0C0576001E74BCF2087402F208E4F208E3
:0C058200F2782274BCF2087402F208E463
:0C058E00F208F2782674BCF2087402F245
:0C059A0008E4F208F2782AE4F208F20803
:0C05A600F208F2782EE4F208F208F208E5
:0C05B200F27832E4F208F208F208F27865
:0A05BE0036E4F208F208F208F278C1
:0805C8003AE4F2783EE4F27817
:0405D0003F7450F232
:03062C000204863F
:05048600122B3E80FE78
:04062F0043A11022B1
:0A06330053C07F53A1FE53BEFC32FA
:07063D00AFBE5307FB8FBEA7
:0E064400E5BE30E5FBAFC674F85F4441FF8FA2
:01065200C6E1
:09065300E5C630E6FB43BE0422BB
:0E065C00AFFB5307BF8FFB43F84090006412C2
:03066A004CEF2230
:0E066D00900064124CEFAFFB5307BF8FFBAF42
:07067B00F85307BF8FF822BE
:0C068200300137124CC3AC82AD83AEF0E7
:0C068E00FF786774FAF208E4F208F20842
:0E069A00F28C828D838EF0EF123248AC82AD6E
:0D06A80083AEF0FFEC30E00543FF04800757
:0706B500AFFF5307FB8FFFAD
:0106BC00221B
:0C06BD00300139124CC3AC82AD83AEF0AA
:0C06C900FF786774F4F2087401F208E492
:0E06D500F208F28C828D838EF0EF123248AC68
:0E06E30082AD83AEF0FFEC30E00543FF0280F5
:0106F1000701
:0706F200AFFF5307FD8FFF6E
:0106F90022DE
:0E06FA00AE82AF8374142EF582E43FF583E0E8
:0B070800FF530780BF80047F018002C8
:020713007F0065
:030715008F8222AE
:0E071800AF8290F0FCE4F0EF30E00690F0FCD1
:030726007480F0EC
:0C072900EF30E10890F0FCE0FE4440F0EE
:0C073500EF30E20890F0FCE0FE4420F001
:0C074100EF30E30890F0FCE0FE4410F004
:0C074D00EF30E40890F0FCE0FE4408F0FF
:0C075900EF30E50890F0FCE0FE4404F0F6
:0C076500EF30E60890F0FCE0FE4402F0EB
:0C077100EF30E70890F0FCE0FF4401F0DE
:07077D0090F0FCE0F5822280
:0C078400AF827840C3E2F5F0EF95F05032
:05079000048F828005CA
:050795007840E2F5824E
:01079A00223C
:0C079B00AFF0AE83E5827842F208EEF287
:0507A70008EFF27C00E8
:0C07AC007841C3E2F5F0EC95F0503A788B
:0C07B80042E22CFA08E23400FB08E2FFE9
:0E07C4008A828B838FF0125BFFF582C007C024
:0E07D20004C003C002120718AE82D002D0038A
:0E07E000D004D0078A828B838FF0EE12377E12
:0307EE000C80BBC1
:0107F10022E5
:0D07F200AE82AF8390F0FDEEF0A3EFF07E3D
:0607FF00FD7FF07D007893
:0B080500417402F28E828F838DF0128E
:0E081000079B90F0FDE0FEA3E0FF74E05FC4E4
:0E081E00035407FC53071F7D007B008CF00580
:03082C00F0800C4D
:0C082F00EE2EFEEF33FFED33FDEB33FB4C
:0B083B00D5F0F18E828F838DF0EB2250
:0E084600AF82AE83ADF0FC90F101EFF0A3EEB7
:0E085400F0A3EDF0A3ECF090F0FFE0FEA3E0C7
:0A086200FF90F101E0F575A3E0F549
:08086C0076A3E0F577A3E0F5A7
:0A08740078A877C4C8C4540F68C800
:0C087E00540FC868C853001FE4F9E824B8
:0A088A0078F582E934F8F583E08E7A
:0C089400828F83F074012EFCE43FFDA86D
:0A08A00076E577A2E7C833C833C835
:0908AA005401F9E578257849E5CF
:0B08B3007823540153001FE4F9E824EF
:0A08BE0078F582E934F8F583E08C48
:0C08C800828D83F074022EFCE43FFDA83A
:0A08D40076E577C313C813C8C313F9
:0C08DE00C813C8F9E578030354C049E5CD
:0C08EA00780303543F53001FE4F9E82496
:0A08F60078F582E934F8F583E08C10
:0C090000828D83F074032EFCE43FFDA800
:0A090C0075E576C403C8C403540760
:0C09160068C85407C868C8F9E577C40336
:0A09220054F849AA77E578C403CA27
:0E092C00C40354076ACA5407CA6ACA53001F9C
:0A093A00E4F9E82478F582E934F8C6
:0E094400F583E08C828D83F074042EFCE43F7A
:0A095200FDA87553001FE4F9E82426
:0A095C0078F582E934F8F583E08CA9
:0E096600828D83F08E828F83A3A3A3A3A3E4CC
:02097400F0226F
:05097600100B028006D9
:06097B0043FF0243FF04EC
:050981001009028006D0
:0609860043FF0243FF04E1
:05098C00100A028012B8
:0D09910043FF0243FF0412066D9000FA12AE
:05099E004CEF12065CA5
:0E09A300AFFF5307FD8FFFAFFF5307FB8FFF22
:0109B1002223
:0909B2001240C2124179500612F4
:0509BB0038ED12500DA3
:0109C0002214
:0D09C100122C5C902580E4F5F0122C9022A1
:0909CE00E58290F105F0FF7E00C6
:0309D700BE20003F
:0A09DA005014EE2478F582E434F89E
:0909E400F583E0FDB50702800374
:0309ED000E80E792
:0E09F0007F007D007C008E828F838DF0EC22D4
:0E09FE0090F156E4F0124CC3AC82AD83AEF023
:0E0A0C00FF90F874E0F8A3E0F9A3E0FAA3E08D
:0E0A1A00FBE828F8E933F9EA33FAEB33FBE89E
:0E0A28002CFCE93DFDEA3EFEEB3FFF90F1574E
:0E0A3600ECF0A3EDF0A3EEF0A3EFF0124CC332
:0E0A4400AC82AD83AEF0FF90F15BECF0A3ED61
:0E0A5200F0A3EEF0A3EFF090F157E0FCA3E06C
:070A6000FDA3E0FEA3E0FF8F
:0E0A6700C007C006C005C004122E0FE582D0E5
:0E0A750004D005D006D007705190F15BE0F878
:0E0A8300A3E0F9A3E0FAA3E0FBC3E89CE99D21
:0E0A9100EA9EEB64808FF063F08095F05030A9
:0E0A9F00C007C006C005C004124CC3A882A93F
:0E0AAD0083AAF0FB90F15BE8F0A3E9F0A3EA66
:0E0ABB00F0A3EBF090000A124CEFD004D0052F
:060AC900D006D007809862
:0E0ACF00122E0FE582606E90F156E0FFC364B8
:0B0ADD008094D05062EF2406FFE43448
:0C0AE800F1FEC007C006122E17AD82D030
:0E0AF40006D0078F828E83EDF0124179501FDD
:0C0B0200123992E58270051209B280F4ED
:0A0B0E0090F156E02406F582E4346D
:090B1800F1F583E0F582123A24A4
:0E0B210090000A124CEF90F156E02401F01201
:0E0B2F002E0FE582609A90F156E0FFBF5092C3
:070B3D0090F156E4F0808BFB
:0A0B440090F156E02406F582E43437
:090B4E00F1F583E4F090F10622B8
:0E0B5700AF83E58290F15FF0A3EFF090F161C3
:0B0B6500E4F090F162F090F163F0907A
:090B7000F164F090F165E4F090ED
:080B7900F166F090F167F090C5
:090B8100F168F090F169E4F090D4
:080B8A00F16AF090F16BF090AC
:090B9200F16CF090F16DE4F090BB
:080B9B00F16EF090F16FF09093
:090BA300F170F090F171E4F090A2
:080BAC00F172F090F173F0907A
:090BB400F174F090F175E4F09089
:080BBD00F176F090F177F09061
:090BC500F178F090F179E4F09070
:080BCE00F17AF090F17BF09048
:090BD600F17CF090F17DE4F09057
:080BDF00F17EF090F17FF0902F
:090BE700F180F090F181E4F0903E
:080BF000F182F090F183F09016
:090BF800F184F090F185E4F09025
:080C0100F186F090F187F090FC
:090C0900F188F090F189E4F0900B
:080C1200F18AF090F18BF090E3
:090C1A00F18CF090F18DE4F090F2
:080C2300F18EF090F18FF090CA
:090C2B00F190F090F191E4F090D9
:080C3400F192F090F193F090B1
:090C3C00F194F090F195E4F090C0
:080C4500F196F090F197F09098
:090C4D00F198F090F199E4F090A7
:080C5600F19AF090F19BF0907F
:090C5E00F19CF090F19DE4F0908E
:080C6700F19EF090F19FF09066
:090C6F00F1A0F090F1A1E4F09075
:080C7800F1A2F090F1A3F0904D
:090C8000F1A4F090F1A5E4F0905C
:080C8900F1A6F090F1A7F09034
:090C9100F1A8F090F1A9E4F09043
:080C9A00F1AAF090F1ABF0901B
:090CA200F1ACF090F1ADE4F0902A
:080CAB00F1AEF090F1AFF09002
:070CB300F1B0F012065C90A5
:0E0CBA00F15FE0FEA3E0FF7D00C006C007C0B2
:0E0CC800051250CA15811581158190F874E04F
:0D0CD600FCA3E0FDA3E0A3E08C828D83125F
:030CE3004CEF22B1
:0A0CE60090F1B1E4F090F1B2F0904B
:080CF000F1B3F090F1B4F090B3
:090CF800F1B5E4F090F1B6F090C2
:080D0100F1B7F090F1B8F09099
:090D0900F1B9E4F090F1BAF090A8
:080D1200F1BBF090F1BCF09080
:090D1A00F1BDE4F090F1BEF0908F
:080D2300F1BFF090F1C0F09067
:090D2B00F1C1E4F090F1C2F09076
:080D3400F1C3F090F1C4F0904E
:090D3C00F1C5E4F090F1C6F0905D
:080D4500F1C7F090F1C8F09035
:090D4D00F1C9E4F090F1CAF09044
:080D5600F1CBF090F1CCF0901C
:090D5E00F1CDE4F090F1CEF0902B
:080D6700F1CFF090F1D0F09003
:090D6F00F1D1E4F090F1D2F09012
:080D7800F1D3F090F1D4F090EA
:090D8000F1D5E4F090F1D6F090F9
:080D8900F1D7F090F1D8F090D1
:090D9100F1D9E4F090F1DAF090E0
:080D9A00F1DBF090F1DCF090B8
:090DA200F1DDE4F090F1DEF090C7
:080DAB00F1DFF090F1E0F0909F
:090DB300F1E1E4F090F1E2F090AE
:080DBC00F1E3F090F1E4F09086
:090DC400F1E5E4F090F1E6F09095
:080DCD00F1E7F090F1E8F0906D
:090DD500F1E9E4F090F1EAF0907C
:080DDE00F1EBF090F1ECF09054
:090DE600F1EDE4F090F1EEF09063
:080DEF00F1EFF090F1F0F0903B
:090DF700F1F1E4F090F1F2F0904A
:080E0000F1F3F090F1F4F09021
:090E0800F1F5E4F090F1F6F09030
:080E1100F1F7F090F1F8F09008
:090E1900F1F9E4F090F1FAF09017
:080E2200F1FBF090F1FCF090EF
:090E2A00F1FDE4F090F1FEF090FE
:080E3300F1FFF090F200F090D5
:0C0E3B00F2017463F090F2027461F09018
:0C0E4700F203746EF090F204746EF090F0
:0C0E5300F205746FF090F2067474F090D9
:0C0E5F00F207E4F030032C43FF0443FFD3
:0E0E6B00029005DC124CEFAFFF5307FB8FFF28
:0E0E7900AFFF5307FD8FFF9003E8124CEF43CD
:0B0E8700FF0443FF029005DC124CEF5B
:0C0E9200D2F085F02575820A125821125A
:0C0E9E0040C29001F4124CEFC2F085F04D
:080EAA002575820A12591A1283
:0D0EB20040C2AFFF5307FB8FFF900BB8123B
:0D0EBF004CEFAFFF5307FD8FFF12065C12D2
:0C0ECC0009FEAE82AF83785EEEF208EF04
:0E0ED800F208E4F290F1B175F0001231E67408
:0A0EE600A7C0E0745CC0E07480C097
:0E0EF000E01250CA15811581158190138812E9
:0A0EFE004CEF1209FEAE82AF8378BC
:0C0F08005EEEF208EFF208E4F290F1B1A6
:0D0F140075F0001231E690F1B175F0001299
:0E0F21005809AE82AF8390F208EEF0A3EFF015
:070F2F00788D7401F20874D3
:0C0F3600F2F208E4F290F1B175F0001244
:0D0F420036A4AD82AE83AFF0ED4E702B747F
:0A0F4F00BCC0E0745CC0E07480C018
:0E0F5900E01250CA15811581158190F874E0E0
:0D0F6700FCA3E0FDA3E0A3E08C828D8312CB
:050F74004CEF02149D8A
:0A0F79007402C0E0745DC0E07480F3
:0E0F8300C0E01250CA15811581158190F874D6
:0E0F9100E0FCA3E0FDA3E0A3E08C828D8312C0
:0D0F9F004CEF90F208E0C0E0A3E0C0E07469
:0A0FAC0039C0E0745DC0E07480C03D
:0E0FB600E01250CAE58124FBF58190F874E04A
:0D0FC400FCA3E0FDA3E0A3E08C828D83126E
:070FD1004CEF744BC0E0740B
:0C0FD8005DC0E07480C0E01250CA1581BA
:0E0FE4001581158190F874E0FCA3E0FDA3E0F8
:0E0FF200A3E08C828D83124CEF90F874E0FC2B
:0E100000A3E0FDA3E0A3E08C828D83124CEFF1
:0A100E007468C0E0745DC0E07480F7
:0E101800C0E01250CA15811581158190F87440
:0E102600E0FCA3E0FDA3E0A3E08C828D83122A
:0E1034004CEF90F874E0FCA3E0FDA3E0A3E015
:0C1042008C828D83124CEF7498C0E07417
:0C104E005DC0E07480C0E01250CA158143
:0E105A001581158190F874E0FCA3E0FDA3E081
:0E106800A3E08C828D83124CEF90F874E0FCB4
:0E107600A3E0FDA3E0A3E08C828D83124CEF7B
:0A10840074C6C0E0745DC0E0748023
:0E108E00C0E01250CA15811581158190F874CA
:0E109C00E0FCA3E0FDA3E0A3E08C828D8312B4
:0E10AA004CEF90F874E0FCA3E0FDA3E0A3E09F
:0C10B8008C828D83124CEF74F6C0E07443
:0C10C4005DC0E07480C0E01250CA1581CD
:0E10D0001581158190F874E0FCA3E0FDA3E00B
:0E10DE00A3E08C828D83124CEF90F874E0FC3E
:0E10EC00A3E0FDA3E0A3E08C828D83124CEF05
:0A10FA007424C0E0745EC0E074804E
:0E110400C0E01250CA15811581158190F87453
:0E111200E0FCA3E0FDA3E0A3E08C828D83123D
:0E1120004CEF90F874E0FCA3E0FDA3E0A3E028
:0C112E008C828D83124CEF7454C0E0746E
:0C113A005EC0E07480C0E01250CA158155
:0E1146001581158190F874E0FCA3E0FDA3E094
:0C115400A3E08C828D83124CEF7463C00A
:0C116000E0745EC0E07480C0E01250CA71
:0E116C0015811581158190F874E0FCA3E0FD5B
:0C117A00A3E0A3E08C828D83124CEF7484
:0A11860083C0E0745EC0E07480C016
:0E119000E01250CA15811581158190F874E0A7
:0D119E00FCA3E0FDA3E0A3E08C828D831292
:0E11AB004CEF90F874E0FCA3E0FDA3E0A3E09D
:0C11B9008C828D83124CEF74A6C0E07491
:0C11C5005EC0E07480C0E01250CA1581CA
:0E11D1001581158190F874E0FCA3E0FDA3E009
:0C11DF00A3E08C828D83124CEF74E3C0FF
:0C11EB00E0745EC0E07480C0E01250CAE6
:0E11F70015811581158190F874E0FCA3E0FDD0
:0C120500A3E0A3E08C828D83124CEF74F8
:0A12110027C0E0745FC0E07480C0E5
:0E121B00E01250CA15811581158190F874E01B
:0D122900FCA3E0FDA3E0A3E08C828D831206
:071236004CEF7483C0E0746B
:0C123D005FC0E07480C0E01250CA158150
:0E1249001581158190F874E0FCA3E0FDA3E090
:0C125700A3E08C828D83124CEF74DCC08D
:0C126300E0745FC0E07480C0E01250CA6C
:0E126F0015811581158190F874E0FCA3E0FD57
:0C127D00A3E0A3E08C828D83124CEF7480
:0A1289001FC0E07460C0E07480C074
:0E129300E01250CA15811581158190F874E0A3
:0D12A100FCA3E0FDA3E0A3E08C828D83128E
:0712AE004CEF7493C0E074E3
:0C12B50060C0E07480C0E01250CA1581D7
:0E12C1001581158190F874E0FCA3E0FDA3E018
:0C12CF00A3E08C828D83124CEF7401C0F0
:0C12DB00E07461C0E07480C0E01250CAF2
:0E12E70015811581158190F874E0FCA3E0FDDF
:0C12F500A3E0A3E08C828D83124CEF7408
:0A1301006FC0E07461C0E07480C0AA
:0E130B00E01250CA15811581158190F874E02A
:0D131900FCA3E0FDA3E0A3E08C828D831215
:071326004CEF74DDC0E07420
:0C132D0061C0E07480C0E01250CA15815D
:0E1339001581158190F874E0FCA3E0FDA3E09F
:0C134700A3E08C828D83124CEF744BC02D
:0C135300E07462C0E07480C0E01250CA78
:0E135F0015811581158190F874E0FCA3E0FD66
:0C136D00A3E0A3E08C828D83124CEF748F
:0A137900B9C0E07462C0E07480C0E7
:0E138300E01250CA15811581158190F874E0B2
:0D139100FCA3E0FDA3E0A3E08C828D83129D
:07139E004CEF7432C0E07453
:0C13A50063C0E07480C0E01250CA1581E3
:0E13B1001581158190F874E0FCA3E0FDA3E027
:0C13BF00A3E08C828D83124CEF7454C0AC
:0C13CB00E07463C0E07480C0E01250CAFF
:0E13D70015811581158190F874E0FCA3E0FDEE
:0C13E500A3E0A3E08C828D83124CEF7417
:0A13F1006DC0E07463C0E07480C0BA
:0E13FB00E01250CA15811581158190F874E03A
:0D140900FCA3E0FDA3E0A3E08C828D831224
:071416004CEF7454C0E074B8
:0C141D005EC0E07480C0E01250CA15816F
:0E1429001581158190F874E0FCA3E0FDA3E0AE
:0C143700A3E08C828D83124CEF74A2C0E5
:0C144300E07463C0E07480C0E01250CA86
:0E144F0015811581158190F874E0FCA3E0FD75
:0E145D00A3E0A3E08C828D83124CEF1209FEF7
:0C146B00AE82AF83785EEEF208EFF2086C
:0C147700E4F290F1B175F0001231E6745F
:0A148300A7C0E0745CC0E07480C0F4
:0E148D00E01250CA158115811581900BB8121E
:02149B004CEF14
:01149D00222C
:0A149E0090F20EE4F090F20FF090CF
:0814A800F210F090F211F09037
:0914B000F212E4F090F213F09046
:0814B900F214F090F215F0901E
:0914C100F216E4F090F217F0902D
:0814CA00F218F090F219F09005
:0914D200F21AE4F090F21BF09014
:0814DB00F21CF090F21DF090EC
:0914E300F21EE4F090F21FF090FB
:0814EC00F220F090F221F090D3
:0914F400F222E4F090F223F090E2
:0814FD00F224F090F225F090BA
:09150500F226E4F090F227F090C8
:08150E00F228F090F229F090A0
:09151600F22AE4F090F22BF090AF
:08151F00F22CF090F22DF09087
:09152700F22EE4F090F22FF09096
:08153000F230F090F231F0906E
:09153800F232E4F090F233F0907D
:08154100F234F090F235F09055
:09154900F236E4F090F237F09064
:08155200F238F090F239F0903C
:09155A00F23AE4F090F23BF0904B
:08156300F23CF090F23DF09023
:09156B00F23EE4F090F23FF09032
:08157400F240F090F241F0900A
:09157C00F242E4F090F243F09019
:08158500F244F090F245F090F1
:09158D00F246E4F090F247F09000
:08159600F248F090F249F090D8
:09159E00F24AE4F090F24BF090E7
:0815A700F24CF090F24DF090BF
:0915AF00F24EE4F090F24FF090CE
:0815B800F250F090F251F090A6
:0915C000F252E4F090F253F090B5
:0815C900F254F090F255F0908D
:0915D100F256E4F090F257F0909C
:0815DA00F258F090F259F09074
:0915E200F25AE4F090F25BF09083
:0815EB00F25CF090F25DF0905B
:0815F300F20EE4F01209761279
:0615FB0040C212065C1262
:0C16010009FEAE82AF83785EEEF208EFC7
:0E160D00F208E4F290F20E75F0001231E6746D
:0A161B00BDC0E07463C0E07480C03D
:0E162500E01250CA15811581158190F874E00D
:0D163300FCA3E0FDA3E0A3E08C828D8312F8
:021640004CEF6D
:0E164200122E0FE582601C1209FEAE82AF83ED
:0B165000785EEEF208EFF208E4F29082
:0A165B00F20E75F0001231E680DD9A
:0E16650090F20E75F000125809AE82AF83901D
:0E167300F20AEEF0A3EFF0C374059EE464806B
:0D1681008FF063F08095F05024EE24FB24E0
:0A168E000EF582E434F2F583E0FF6C
:0D1698003395E0FEEF24D0FFEE34FFFE900E
:0916A500F20CEFF0A3EEF0800757
:0716AE0090F20CE4F0A3F040
:0C16B50090F20CE0FEA3E08E82F5832290
:0B16C10090F25E7401F0A3E4F07F00E3
:0316CC00BF10004C
:0E16CF00505B90F25EE0FDA3E0FEBD0150BE58
:0A16DD00004DC00774D8C0E074632C
:0E16E700C0E07480C0E01250CA158115811554
:0C16F500819000FA124CEF74F3C0E07416
:0C17010063C0E07480C0E01250CA158183
:0E170D0015811581900064124CEF12149EE5B8
:0E171B00828583F0D00790F25EF0A3E5F0F037
:031729000F80A08E
:01172C00229A
:0A172D0012065C900064124CEF7489
:0A173700F3C0E07463C0E07480C0EA
:0E174100E01250CA15811581158190F874E0F0
:0D174F00FCA3E0FDA3E0A3E08C828D8312DB
:07175C004CEF740DC0E074B6
:0C17630064C0E07480C0E01250CA158120
:0E176F001581158190F874E0FCA3E0FDA3E065
:0D177D00A3E08C828D83124CEF1216C11276
:0E178A00149EAE82AF8390F288EEF0A3EFF0D3
:08179800BE0505BF00028050F0
:0A17A00074D8C0E07463C0E07480E8
:0E17AA00C0E01250CA15811581158190F874A7
:0E17B800E0FCA3E0FDA3E0A3E08C828D831291
:0717C6004CEF7422C0E07437
:0C17CD0064C0E07480C0E01250CA1581B6
:0E17D900158115811216C112149EE5828583BA
:0917E700F090F288F0A3E5F0F0A7
:0E17F00090F288E0FEA3E0FFBE0505BF0002F8
:0217FE00805316
:0A18000074F3C0E07463C0E074806C
:0E180A00C0E01250CA15811581158190F87446
:0E181800E0FCA3E0FDA3E0A3E08C828D831230
:071826004CEF7466C0E07492
:0C182D0064C0E07480C0E01250CA158155
:0B183900158115811216C11216C11294
:0E184400149EE5828583F090F288F0A3E5F013
:01185200F0A5
:0E18530090F288E0FEA3E0FFBE0505BF000294
:021861008053B2
:0A18630074F3C0E07463C0E0748009
:0E186D00C0E01250CA15811581158190F874E3
:0E187B00E0FCA3E0FDA3E0A3E08C828D8312CD
:071889004CEF74B6C0E074DF
:0C18900064C0E07480C0E01250CA1581F2
:0B189C00158115811216C11216C11231
:0E18A700149EE5828583F090F288F0A3E5F0B0
:0118B500F042
:0E18B60090F288E0FEA3E0FFBE0505BF000231
:0218C400805052
:0A18C60074F3C0E07463C0E07480A6
:0E18D000C0E01250CA15811581158190F87480
:0E18DE00E0FCA3E0FDA3E0A3E08C828D83126A
:0718EC004CEF74FFC0E07433
:0C18F30064C0E07480C0E01250CA15818F
:0E18FF00158115811216C112149EE582858393
:09190D00F090F288F0A3E5F0F07F
:0E19160090F288E0FEA3E0FFBE0505BF0002D0
:021924008050F1
:0A19260074D8C0E07463C0E0748060
:0E193000C0E01250CA15811581158190F8741F
:0E193E00E0FCA3E0FDA3E0A3E08C828D831209
:07194C004CEF743FC0E07492
:0C19530065C0E07480C0E01250CA15812D
:0E195F00158115811216C112149EE582858332
:09196D00F090F288F0A3E5F0F01F
:0E19760090F288E0FEA3E0FFBE0505BF000270
:021984008003DE
:03198600021AAA98
:0A19890074F3C0E07463C0E07480E2
:0E199300C0E01250CA15811581158190F874BC
:0E19A100E0FCA3E0FDA3E0A3E08C828D8312A6
:0519AF004CEF785E74AE
:0A19B40084F2087465F2087480F2F2
:0A19BE0090F26075F0001231E6901F
:0619C800F260120B5790C3
:0E19CE00F874E0FCA3E0FDA3E0A3E08C828DA2
:0719DC0083124CEF785E74EA
:0A19E300AAF2087465F2087480F29D
:0A19ED0090F26075F0001231E690F0
:0619F700F260120B579094
:0E19FD00F874E0FCA3E0FDA3E0A3E08C828D73
:071A0B0083124CEF785E74BA
:0A1A1200DDF2087465F2087480F23A
:0A1A1C0090F26075F0001231E678D8
:061A2600847441F2087413
:0C1A2C00F8F208E4F290F26075F000128D
:051A3800362A788474D9
:0A1A3D00E9F2087465F2087480F203
:0A1A470090F26075F00012362A7864
:061A510084742BF20874FE
:0C1A5700F8F208E4F290F26075F0001262
:051A6300362A788474AE
:0A1A6800ECF2087465F2087480F2D5
:0A1A720090F26075F00012362A9021
:061A7C00F260120B57900E
:0E1A8200F874E0FCA3E0FDA3E0A3E08C828DED
:0E1A900083124CEF90F874E0FCA3E0FDA3E09D
:0C1A9E00A3E08C828D83124CEFD38029D2
:0A1AAA0074D8C0E07463C0E07480DB
:0E1AB400C0E01250CA15811581158190F8749A
:0E1AC200E0FCA3E0FDA3E0A3E08C828D831284
:031AD0004CEFC315
:011AD30022F0
:0A1AD400AF83E5827845F208EFF2D7
:0E1ADE00122E0FE582601C1209FEAC82AD8351
:0B1AEC00785EECF208EDF208E4F290E6
:0A1AF700F28A75F0001231E680DD7E
:0C1B01001209FEAC82AD83785EECF208A5
:0E1B0D00EDF208E4F290F28A75F0001231E673
:0A1B1B0074F1C0E07465C0E074804E
:0E1B2500C0E01250CA15811581158190F87428
:0E1B3300E0FAA3E0FBA3E0A3E08A828B83121A
:0A1B41004CEF1209FEAC82AD837870
:0C1B4B005EECF208EDF208E4F290F28A81
:0D1B570075F0001231E690F28A75F0001270
:0C1B64005809AC82AD83300321C005C0DD
:0A1B700004C004C005740CC0E0744A
:0C1B7A0066C0E07480C0E01250CAE58133
:081B860024FBF581D004D00519
:0C1B8E00C004C005C005C004742DC0E0F8
:0C1B9A007466C0E07480C0E01250CA15F0
:0E1BA6008115811581D004D00590F874E0FA05
:0E1BB400A3E0FBA3E0FCA3E0FD8A828B83C0CC
:0B1BC20005C004124CEF742DC0E0744D
:0C1BCD0066C0E07480C0E01250CA1581B0
:0E1BD90015811581D004D00590F874E0FAA3B0
:0E1BE700E0FBA3E0FCA3E0FD8A828B83C00537
:0E1BF500C004124CEFD004D005D005D0047B04
:011C030000E0
:0C1C0400C3EB6480948E50237845E22BE3
:0D1C1000FA08E23400FF8C06EE24EB2B24D2
:0A1C1D008AF582E434F2F583E0FE5C
:081C27008A828F83F00B80D547
:0A1C2F0074F92C248AF582E434F2E3
:0C1C3900F583E090F2DAF074FA2C248AB3
:0C1C4500F582E434F2F583E090F2DBF06D
:0A1C510074FB2C248AF582E434F2BF
:0D1C5B00F583E090F2DCF090F2DDE4F0782B
:0C1C680045E22404FE08E23400FF8E82F6
:0A1C74008F837430F078BB7430F2F7
:0C1C7E00087466F2087480F290F2DA75C7
:0E1C8A00F000C007C006124AB4E5828583F060
:0C1C9800D006D00745F070107845E2241B
:0C1CA40005F58208E23400F5837431F08D
:071CB00078BB7434F20874E4
:0C1CB70066F2087480F290F2DA75F0001A
:0E1CC300C007C006124AB4E5828583F0D00641
:0C1CD100D00745F070107845E22405F5BE
:0A1CDD008208E23400F5837432F04F
:071CE70078BB7438F20874A9
:0C1CEE0066F2087480F290F2DA75F000E3
:0E1CFA00C007C006124AB4E5828583F0D0060A
:0C1D0800D00745F070107845E22405F586
:0A1D14008208E23400F5837433F016
:071D1E0078BB743CF208746D
:0C1D250066F2087480F290F2DA75F000AB
:0E1D3100C007C006124AB4E5828583F0D006D2
:0C1D3F00D00745F070107845E22405F54F
:0A1D4B008208E23400F5837434F0DE
:071D550078BB7440F2087432
:0C1D5C0066F2087480F290F2DA75F00074
:0E1D6800C007C006124AB4E5828583F0D0069B
:0C1D7600D00745F070107845E22405F518
:0A1D82008208E23400F5837435F0A6
:071D8C0078BB7444F20874F7
:0C1D930066F2087480F290F2DA75F0003D
:0E1D9F00C007C006124AB4E5828583F0D00664
:0C1DAD00D00745F070107845E22405F5E1
:0A1DB9008208E23400F5837436F06E
:071DC30078BB7448F20874BC
:0C1DCA0066F2087480F290F2DA75F00006
:0E1DD600C007C006124AB4E5828583F0D0062D
:0C1DE400D00745F070107845E22405F5AA
:0A1DF0008208E23400F5837437F036
:071DFA0078BB744CF2087481
:0C1E010066F2087480F290F2DA75F000CE
:0E1E0D00C007C006124AB4E5828583F0D006F5
:0C1E1B00D00745F070107845E22405F572
:0A1E27008208E23400F5837438F0FD
:071E310078BB7450F2087445
:0C1E380066F2087480F290F2DA75F00097
:0E1E4400C007C006124AB4E5828583F0D006BE
:0C1E5200D00745F070107845E22405F53B
:0A1E5E008208E23400F5837439F0C5
:071E680078BB7454F208740A
:0C1E6F0066F2087480F290F2DA75F00060
:0E1E7B00C007C006124AB4E5828583F0D00687
:0C1E8900D00745F070107845E22405F504
:0A1E95008208E23400F5837430F097
:071E9F0078BB7454F20874D3
:0C1EA60066F2087480F290F2DA75F00029
:0E1EB200C007C006124AB4E5828583F0D00650
:0A1EC000D00745F0604E78BB74585F
:0C1ECA00F2087466F2087480F290F2DAFC
:0E1ED60075F000C007C006124AB4E58285838D
:0C1EE400F0D006D00745F0602778BB74F2
:0A1EF0005CF2087466F2087480F2D8
:0E1EFA0090F2DA75F000C007C006124AB4E597
:0C1F0800828583F0D006D00745F07007FA
:071F14008E828F837431F00F
:071F1B0078BB7458F2087452
:0C1F220066F2087480F290F2DA75F000AC
:0D1F2E00124AB4E5828583F045F07010780A
:0C1F3B0045E22405F58208E23400F5833D
:031F47007431F002
:071F4A0078BB745CF208741F
:0C1F510066F2087480F290F2DA75F0007D
:0D1F5D00124AB4E5828583F045F0701078DB
:0C1F6A0045E22405F58208E23400F5830E
:031F76007432F0D2
:011F79002245
:0A1F7A007460C0E07466C0E074807B
:0E1F8400C0E01250CA15811581158190F874C5
:0E1F9200E0FCA3E0FDA3E0A3E08C828D8312AF
:071FA0004CEF746DC0E0740A
:0C1FA70066C0E07480C0E01250CA1581D2
:0E1FB3001581158190F874E0FCA3E0FDA3E019
:0A1FC100A3E08C828D83124CEF2206
:0B1FCB00AF83E5827847F208EFF29048
:0C1FD600F2DE7442F090F2DF744CF090E8
:0C1FE200F2E07441F090F2E1744EF090D7
:0B1FEE00F2E2744BF090F2E3E4F0909C
:0A1FF900F2E4F090F2E57401F090BC
:0C200300F2E67402F090F2E77403F09033
:0C200F00F2E87404F090F2E97405F0901F
:0C201B00F2EA7406F090F2EB7407F0900B
:0C202700F2EC7408F090F2ED7409F090F7
:0C203300F2EE740AF090F2EF740BF090E3
:0C203F00F2F0740CF090F2F1740DF090CF
:0C204B00F2F2740EF090F2F3740FF01239
:0E205700065CADFF5305FB8DFFADFF5305FD8D
:092065008DFF90F374121AD47877
:06206E005E7474F20874B8
:0C207400F3F208E4F290F2E475F00012C0
:0620800031E6300320747C
:0A208600E4C0E074F2C0E0E4C0E042
:0A2090007486C0E07466C0E074803E
:0B209A00C0E01250CAE58124FAF58175
:0C20A5007847E2240BFC08E23400FD8CBC
:0C20B100828D83E090F2F2F07847E22488
:0E20BD0012F58208E23400F583E090F2F3F0B1
:0E20CB00C005C00412172DD004D0054003023A
:0220D900238161
:0C20DB0043FF027847E22405F58208E28A
:0E20E7003400F583E0FAA3E0FBA3E0FEA3E0E3
:0920F500FF90F0FF74DEF0A3740B
:0C20FE00F2F08A828B838EF0EFC005C0E8
:0C210A0004120846D004D0057847E224F7
:0E21160013F58208E23400F583E0FFC2D575B0
:0A212400F002EF30E704B2D5F40436
:06212E008430D502F40428
:0D213400C0E0A2D595E0F5F0D0E024B7F5AD
:0821410028E5F034FFF52978D0
:0C21490047E22410F58208E23400F58320
:08215500E0FB8B2675270078E2
:0C215D0047E2240EF58208E23400F5830E
:0E216900E0FAA3E0FB8A828B83C005C004125B
:0C21770007F2AA82AB83AEF0FFEA2AF563
:082183002AEB33F52BEE33F5D6
:06218B002CEF33F52D7866
:0C21910047E2240CF58208E23400F583DC
:0E219D00E0FEA3E0FF8E828F831207F2AA827B
:0E21AB00AB83AEF0FFD004D0058C828D83E0B4
:0821B900FC7D00C028C029C014
:0421C10026C027C04D
:0421C5002AC02BC041
:0A21C9002CC02DC002C003C006C0E8
:0A21D3000774DEC0E074F2C0E0E41F
:0B21DD00C0E0C004C0057447C0E074FF
:0A21E800F8C0E0E4C0E0749EC0E01F
:0A21F2007466C0E07480C0E074F46D
:0C21FC00C0E074F2C0E0E4C0E0124EC18C
:0A220800AE82E58124E6F5818E0721
:03221200BF4000CA
:0A2215005010EF24F4F582E434F2D7
:08221F00F5837420F00F80EB41
:062227002004030222BFA7
:08222D0090F7F974F4F0A374BA
:0C223500F2F090F7FB7440F0A3E4F0A37B
:0B224100F0A3F090F7FF744FF0A374BF
:06224C00F8F090F80174A7
:07225200E4F0A374F2F09028
:06225900F3341248C774C3
:0A225F00CFC0E07466C0E07480C0D8
:0C226900E01250CA1581158115817F001C
:03227500BF100097
:0A227800502EEF24E4F582E434F266
:0D228200F583E0FE7D00C007C006C00574B6
:0A228F00E5C0E07466C0E07480C092
:0E229900E01250CAE58124FBF581D0070F80CA
:0122A700CD69
:0A22A80074EAC0E07466C0E07480C0
:0D22B200C0E01250CA158115811581802AE7
:0722BF00785E74F4F208746C
:0C22C600F2F208E4F290F33475F000121C
:0722D20031E674ECC0E0747A
:0C22D90066C0E07480C0E01250CA15819D
:0422E50015811581C9
:0222E9007F0074
:0322EB00BF4000F1
:0A22EE00502EEF2434F582E434F39F
:0D22F800F583E0FE7D00C007C006C0057440
:0A230500E5C0E07466C0E07480C01B
:0E230F00E01250CAE58124FBF581D0070F8053
:01231D00CDF2
:0A231E0074FDC0E07466C0E0748036
:0E232800C0E01250CA15811581158190F8741D
:0E233600E0FCA3E0FDA3E0A3E08C828D831207
:072344004CEF74D8C0E074F7
:0C234B0063C0E07480C0E01250CA15812D
:0E2357001581158190F874E0FCA3E0FDA3E071
:0E236500A3E08C828D83124CEF90F874E0FCA4
:0E237300A3E0FDA3E0A3E08C828D83124CEF6B
:0423810012066D22B1
:042385007E017F0056
:0E238900C3EE9410EF6480948050198E82C2CF
:0C239700F0C007C00685F025125821D0C8
:0A23A30006D0070EBE00DF0F80DC3D
:0123AD00220D
:0423AE007E007F002E
:0E23B200C3EE9410EF6480948050198E82C2A6
:0C23C000F0C007C00685F025125821D09F
:0A23CC0006D0070EBE00DF0F80DC14
:0123D60022E4
:0423D7007E007F0005
:0D23DB00C3EE9404EF648094805018EE244B
:0923E80002F9EE2460F582EF34E5
:0C23F100F8F583E0FDF30EBE00E00F8065
:0123FD00DD02
:0123FE0022BC
:0E23FF00AFC95307FC8FC9AFC974FB5F440818
:04240D00FF8FC92252
:0E241100AF83E58290F385F0A3EFF0123580E3
:07241F001235CD1223AE308F
:0524260005030225DAA8
:08242B00124179500302254D16
:0B243300AF8CA2BD9208AEF3ADFD78A7
:0A243E004DE5F4F2784EE5FEF2C021
:0C24480007C006C00512062F124182904A
:0C245400F89FE4F0C206AABE53027F8A83
:0E246000BE43A20312063DD005D006D0077879
:0A246E0049E5D5F2784AE5D4F2E51D
:0B247800D6540124FF920743D6817A5E
:06248300647BF88B02905F
:07248900F86BEAF07A647BB6
:07249000F890F86CEAF07A05
:062497006B7BF88BD57A87
:0A249D006B7BF88AD475D601ABA85A
:0A24A700784BE5B8F2784CE59AF2A4
:0E24B10043A8A053A8A0AAB85302C08AB8AA94
:0B24BF009A5302C08A9A43A204AAA507
:0624CA00EAB5A50280FA4C
:0E24D000C00390F385E0FBA3E0FC8CA48BA37B
:0424DE00AAA5D003D8
:0624E200EAB5A50280FA34
:0E24E80043C70275BE06000000E5BE54036047
:0924F6000875D7010043870100BD
:0A24FF008BA8784BE2F5B8784CE2A8
:0A250900F59A7849E2F5D5784AE228
:08251300F5D430070343D601A3
:0E251B00C007C006C0051240C6D005D006D0CD
:0C252900078F8CA20892BD8EF38DFD7808
:0A2535004DE2F5F4784EE2F5FE9059
:0E253F00DE017401F090DE0B7407F00225DA65
:0C254D00124CC3784FC0E0E582F208E5B4
:0C25590083F208E5F0F2D0E008F2200662
:0B2565000B90F89F7402F012418AD224
:012570000664
:0E257100900064124CEF90F385E0FAA3E0FBBB
:0B257F0078B9EAF208EBF29003E812D2
:07258A004A9485822E85832F
:012591002F1A
:0C259200124CC3AC82AD83AEF0FF784F5A
:0C259E00D3E29CF4B3F530B308E29DF4E6
:0A25AA00B3F531B308E29EF4B3F577
:0925B40032B308E29FF4F533AAEA
:0A25BD002EE52FFB3395E0FEFFC36F
:0725C700E5309AE5319BE5C8
:0825CE00329EE5339F50051217
:0425D60009B280B80E
:0425DA001223852221
:0625DE00E58290F387F096
:0E25E400122DBBE582700843FF021240C28038
:0125F200F1F7
:0D25F30090F387E0FFF582C007122DF6126D
:062600004179D007501CD7
:0E260600C007123992E582D0077009C0071292
:0626140040C2D00780EC7B
:08261A008F82123A241240C223
:08262200AFFF5307FD8FFF22FB
:0D262A00AD82AE83AFF0C007C006C0051240
:0D2637004179D005D006D00740030226EE01
:0D2644008D828E838FF0C007C006C0051286
:0E2651005809AB82D005D006D007EB04FCEB95
:0E265F002DF8E43EF98F02888289838AF07498
:0E266D002F12377E0B0BEC2DF9E43EFA8F0492
:0D267B0089828A838CF0742F12377E7C00D8
:05268800C3EC9B506152
:0E268D00C007C006C005C004C003123992E5A4
:0E269B0082D003D004D005D006D0077019C03D
:0E26A90007C006C005C004C0031209B2D0036A
:0A26B700D004D005D006D00780CC77
:0E26C100EC2DF8E43EF98F02888289838AF0BE
:0E26CF00125BFFF582C007C006C005C004C044
:0E26DD0003123A24D003D004D005D006D00753
:0326EB000C809AC6
:0126EE0022C9
:0626EF00E58290F389F082
:0E26F50075E10490DF3BE0FFBF01F590F38834
:0E270300E090DF08F090F389E090DF06F075BB
:03271100E10222C0
:0E271400AE82AF83C007C00612312590DF13DE
:0C272200E4F01230E7D006D007EE2406E9
:0C272E00F9E3FDEE2402F9E390F388F0DB
:06273A008D821226EF2241
:0E274000AF83E58290F38BF0A3EFF0124CC351
:08274E0085823F85834085F080
:0427560041F5429077
:0E275A00F38D7440F0A3747EF0A37405F0A319
:0E276800E4F090F3917442F090F392744CF010
:0D27760090F3937441F090F394744EF09042
:0B278300F395744BF090F396E4F09097
:09278E00F38AE0FB2406F9E3F5EF
:0727970034EB2402F9E3908A
:09279E00F388F0853482C00312B7
:0827A70026EFD00330030F9070
:0E27AF00F38D74B8F0A3740BF0A3E4F0A3F064
:0927BD0090F38DE0F535A3E0F581
:0827C60036A3E0F537A3E0F5AE
:0627CE003890F38BE0F5EA
:0727D40039A3E0F53AE4F53A
:0427DB003BF53CF599
:0327DF003DF53E87
:0927E200E539453A603DC00312DF
:0C27EB004CC3AA82AB83AEF0FFEAC3959A
:0527F7003FF543EB95E6
:0527FC0040F544EE95DC
:0528010041F545EF95D3
:0428060042F546ACA5
:09280A0039AD3A7E007F00C3E500
:06281300439CE5449DE535
:0A281900459EE5469FD003400302F0
:0228230029DDAD
:0B282500C0031209B2120682D00305A6
:062830003BE4B53B0C0582
:052836003CB53C070564
:05283B003DB53D020562
:012840003E59
:0C28410078587440F208749CF208E4F22D
:09284D0008F2853B82853C83857D
:072856003DF0E53EC0031256
:0E285D002EE3AC82AD83AEF0FFD003EC4D4E07
:0D286B004F700E8B06FF8E828F83C003120C
:042878002714D0034E
:0E287C00C003124CC3AC82AD83AEF0FFD0039C
:0A288A00ECC3953FFCED9540FDEE18
:092894009541FEEF9542FFC3E5FA
:06289D00359CE5369DE5C7
:0A28A300379EE5389F5010C0031265
:0D28AD0023FF43FF029007D0124CEFD00331
:0E28BA00C00312336AAE82AF83D0038E048F48
:0828C80005EE4F70030227E248
:0C28D0008C828D83E0FFEB2402F9E3FE14
:0C28DC0090DF38E02EF3C0037853E2FADE
:0A28E80008E2FB7E008C438D44756E
:0A28F200450074022FF5827840744F
:0E28FC0015F2C006C003C002120784AF82D0DE
:0C290A0002D003D0067877EFF208E4F268
:072916007874E543F208E5C7
:0A291D0044F208E545F28A828B833C
:0E2927008EF0C0031234B9124FDBD003D00380
:0529350040030229CE61
:0C293A00C0037853E2FE08E2FF8E828F9B
:0E29460083A3A3A3A3A3E0FAA3E0FBA3E0FCFA
:0B295400A3E0FD90F0FF7491F0A3746D
:0C295F00F3F08A828B838CF0EDC007C07F
:09296B0006C00312084678BB7493
:0A29740025F20874F8F208E4F2906E
:0E297E00F39175F000124AB4E5828583F0D023
:0C298C0003D006D007D00345F060032004
:02299800002A13
:0E299A00740B2EFEE43FFF8E828F83E0C39B02
:0E29A8008E828F83F0C003123385D003AFFF01
:0C29B6005307FB8FFF783AEBF290000112
:0229C200802370
:0A29C400C003123385D0030227E29E
:0E29CE00123385AFFF5307FB8FFF9000008090
:0129DC000AF0
:0A29DD00AFFF5307FB8FFF900000CF
:0129E70022CD
:0C29E800AF83E58290F397F0A3EFF0308E
:0C29F400052990F397E0FEA3E0CE25E05B
:0C2A0000CE33CE25E0CE33EE241AF9E3ED
:0E2A0C00FC09E3FD09E3FE09E3FF8C828D83E4
:052A1A008EF0022AAA63
:0C2A1F0090F397E0FEA3E0FF4E7060789B
:0C2A2B003EE2605B8E04EFCC25E0CC3373
:0B2A3700CC25E0CC33EC240AF9E3F5D9
:082A42004709E3F54809E3F53B
:062A4A004909E3F54A789A
:0A2A50003E7900E2F5F0E3A4FCADCE
:0C2A5A00F078B9ECF208EDF29007D01211
:0E2A66004A94AC82E583FD3395E0FBFAEC2543
:082A740047FCED3548FDEB3590
:0A2A7C0049FBEA354AFA8C828D838B
:042A86008BF0802031
:0D2A8A00EFCE25E0CE33CE25E0CE33EE2496
:0C2A97000AF9E3FC09E3FD09E3FE09E392
:072AA300FF8C828D838EF091
:012AAA002209
:0B2AAB00AF83E5827855F208EFF2904F
:082AB600F85FE0FC3395E0FD40
:0E2ABE00C3EC9404ED64809480504F8C828DA4
:0E2ACC0083C005C0041229E8AA82AB83D0049F
:082ADA0090F38AECF0785579C5
:0C2AE20053E2F308E209F38A828B83C000
:0E2AEE0004122740AE82AF83D004D005BE0094
:062AFC0005BF0002800F7F
:0A2B0200BE010CBF0009C205783EB9
:052B0C00E4F2D3802873
:072B11000CBC00A90D80A619
:092B1800783EE22401F2783E79D6
:0B2B210001C3E2F5F0E395F0500678E8
:052B2C003EE4F2D205B9
:082B31001223D7783AE4F2C345
:012B39002279
:042B3A00758F002271
:0A2B3E001240B51209C143FE08124F
:062B4800062F1223851286
:092B4E002B3A9003E8124CEF123F
:0A2B570032E9D21290DF13E4F0120D
:062B61000CE612065C12F6
:022B67001F7AD3
:0A2B6900787CE4F2787D7415F20820
:0C2B7300E4F290F39975F00012352C127A
:062B7F0040C230031412F5
:062B85000CE690F399122A
:092B8B001FCB121F7A901388126F
:042B94004CEF802062
:0E2B980090F399122AAB501875E10490006476
:072BA600124CEF1230ED129A
:062BAD000CE690F3991202
:052BB3001FCB121F7A88
:0B2BB8001241795006783EE22401F241
:0A2BC300783EE26073783EE2F5F020
:0A2BCD00E2A4F58285F08378007918
:0C2BD700B9E2F309E4F3124A94AE82AFB5
:0C2BE30083783EE27D0024FFF582ED3493
:0A2BEF00FFF583783EE2FC7D0078DC
:0C2BF900B9EC24FFF2ED34FF08F2C00735
:0C2C0500C006124A94AC82AD83780079BE
:0B2C1100B9E2F309E4F38C828D83121A
:0E2C1C004A94AC82AD83D006D00774DCC39E10
:0D2C2A00FEE49FFFEC2EF582ED3FF58312D6
:042C370024118006DE
:062C3B009000EB122411D1
:0D2C41001223FF43FF029007D0124CEF1248
:0B2C4E0030F690DF13E4F01230E702D4
:032C59002B6922C2
:0E5CA700646F66696C652822696E69742E6CE4
:075CB500756122290D0A00B0
:0E5CBC002D2D204E6F206E65656420746F20C4
:0E5CCA007772697465206F7574202E6C756199
:0E5CD8002066696C65732061732074686579BD
:0E5CE600207365656D20746F20616C726561BE
:0E5CF4006479206578697374202D2D0D0A00E7
:0E5D02002D2D2057726974696E67206F7574BD
:0E5D1000202E6C75612066696C6573206173CE
:0E5D1E0020746865792063616E6E6F74206278
:0D5D2C006520666F756E64202D2D0D0A0038
:0E5D39002D2D204C656E67746820697320253F
:045D4700640D0A00DD
:0E5D4B0066696C652E6F70656E2822696E6940
:0E5D5900742E6C7561222C20227722290D0AEF
:015D6700003B
:0E5D680066696C652E77726974656C696E658C
:0E5D7600285B5B6770696F2E6D6F6465283364
:0E5D84002C206770696F2E4F555450555429CE
:065D92005D5D290D0A0011
:0E5D980066696C652E77726974656C696E655C
:0E5DA600285B5B6770696F2E777269746528E1
:0E5DB400332C206770696F2E4C4F57295D5DB0
:045DC200290D0A009D
:0E5DC60066696C652E77726974656C696E652E
:0E5DD400285B5B6770696F2E6D6F6465283504
:0E5DE2002C206770696F2E4F55545055542970
:065DF0005D5D290D0A00B3
:0E5DF60066696C652E77726974656C696E65FE
:0E5E0400285B5B6770696F2E77726974652882
:0E5E1200352C206770696F2E4C4F57295D5D4F
:045E2000290D0A003E
:0E5E240066696C652E77726974656C696E65CF
:0E5E3200285B5B6770696F2E6D6F64652834A6
:0E5E40002C206770696F2E4F55545055542911
:065E4E005D5D290D0A0054
:0E5E540066696C652E636C6F736528290D0AF4
:015E6200003F
:0E5E630066696C652E72656D6F76652827671F
:0E5E71006F6F676C6574696D652E6C756127C7
:045E7F00290D0A00DF
:0E5E830066696C652E6F70656E2822676F6F02
:0E5E9100676C6574696D652E6C7561222C203E
:075E9F00227722290D0A0001
:0E5EA60066696C652E77726974656C696E654D
:0E5EB400285B5B636F6E6E473D6E65742E63F8
:0E5EC2007265617465436F6E6E656374696F1F
:0E5ED0006E286E65742E5443502C2030295DD0
:055EDE005D290D0A0022
:0E5EE30066696C652E77726974656C696E6510
:0E5EF100285B5B636F6E6E473A6F6E2822630C
:0E5EFF006F6E6E656374696F6E222C66756E31
:0E5F0D006374696F6E28636F6E6E2C20706176
:0C5F1B00796C6F6164295D5D290D0A003E
:0E5F270066696C652E77726974656C696E65CB
:0E5F3500285B5B636F6E6E473A73656E64287F
:0E5F43002248454144202F20485454502F310D
:0E5F51002E315C725C6E486F73743A20676F7D
:0E5F5F006F676C652E636F6D5C725C6E4163E4
:0E5F6D00636570743A202A2F2A5C725C6E22E3
:085F7B002E2E5D5D290D0A00C8
:0E5F830066696C652E77726974656C696E656F
:0E5F9100285B5B22557365722D4167656E7447
:0E5F9F003A204D6F7A696C6C612F342E3020E1
:0E5FAD0028636F6D70617469626C653B2065DE
:0E5FBB00737038323636204C75613B295C72AB
:0E5FC9005C6E5C725C6E222920656E64295D40
:055FD7005D290D0A0028
:0E5FDC0066696C652E77726974656C696E6516
:0E5FEA002822636F6E6E473A6F6E285C22723B
:0E5FF8006563656976655C222C2066756E63B4
:0E60060074696F6E28636F6E6E472C20706198
:0B601400796C6F61642922290D0A00DD
:0E601F0066696C652E77726974656C696E65D2
:0E602D0028227072696E7428737472696E672F
:0E603B002E737562287061796C6F61642C732E
:0E6049007472696E672E66696E6428706179E4
:0E6057006C6F61642C5C22446174653A5C22BB
:0E606500292B31382C737472696E672E6669B0
:0E6073006E64287061796C6F61642C5C22444D
:0E6081006174653A5C22292B3231292E2E22C1
:04608F00290D0A00CD
:0E60930066696C652E77726974656C696E655E
:0E60A1002822737472696E672E737562287000
:0E60AF0061796C6F61642C737472696E672E78
:0E60BD0066696E64287061796C6F61642C5C9A
:0E60CB0022446174653A5C22292B31352C7316
:0E60D9007472696E672E66696E642870617954
:0E60E7006C6F61642C5C22446174653A5C222B
:0C60F500292B3136292E2E22290D0A00FD
:0E61010066696C652E77726974656C696E65EF
:0E610F002822737472696E672E737562287091
:0E611D0061796C6F61642C737472696E672E09
:0E612B0066696E64287061796C6F61642C5C2B
:0E61390022446174653A5C22292B31312C73AB
:0E6147007472696E672E66696E6428706179E5
:0E6155006C6F61642C5C22446174653A5C22BC
:0C616300292B3132292E2E22290D0A0092
:0E616F0066696C652E77726974656C696E6581
:0E617D002822737472696E672E737562287023
:0E618B0061796C6F61642C737472696E672E9B
:0E61990066696E64287061796C6F61642C5CBD
:0E61A70022446174653A5C22292B32332C733A
:0E61B5007472696E672E66696E642870617977
:0E61C3006C6F61642C5C22446174653A5C224E
:0C61D100292B3234292E2E22290D0A0021
:0E61DD0066696C652E77726974656C696E6513
:0E61EB002822737472696E672E7375622870B5
:0E61F90061796C6F61642C737472696E672E2D
:0E62070066696E64287061796C6F61642C5C4E
:0E62150022446174653A5C22292B32362C73C8
:0E6223007472696E672E66696E642870617908
:0E6231006C6F61642C5C22446174653A5C22DF
:0C623F00292B3237292E2E22290D0A00AF
:0E624B0066696C652E77726974656C696E65A4
:0E6259002822737472696E672E737562287046
:0E62670061796C6F61642C737472696E672EBE
:0E62750066696E64287061796C6F61642C5CE0
:0E62830022446174653A5C22292B32392C7357
:0E6291007472696E672E66696E64287061799A
:0E629F006C6F61642C5C22446174653A5C2271
:0C62AD00292B3330292E2E22290D0A0047
:0E62B90066696C652E77726974656C696E6536
:0E62C7002822737472696E672E7375622870D8
:0E62D50061796C6F61642C737472696E672E50
:0E62E30066696E64287061796C6F61642C5C72
:0E62F10022446174653A5C22292B31342C73EF
:0E62FF007472696E672E66696E64287061792C
:0E630D006C6F61642C5C22446174653A5C2202
:0E631B00292B3136292E2E5C225C5C725C5CD4
:096329006E5C222922290D0A00F4
:0E63320066696C652E77726974656C696E65BC
:0E6340002822636F6E6E473A636C6F73652898
:06634E002922290D0A00BE
:0E63540066696C652E77726974656C696E659A
:0B6362002822656E642922290D0A0024
:0E636D0066696C652E77726974656C696E6581
:0E637B00285B5B636F6E6E473A636F6E6E65F4
:0E63890063742838302C27676F6F676C652EA1
:0B639700636F6D27295D5D290D0A0072
:0E63A2007072696E742827636F6E6E472072EA
:0D63B000656164795C725C6E27290D0A003E
:0E63BD007072696E7428776966692E73746158
:0D63CB002E7374617475732829290D0A0062
:0E63D8006770696F2E777269746528342C2007
:0D63E6006770696F2E48494748290D0A006D
:0E63F3006770696F2E777269746528342C20EC
:0C6401006770696F2E4C4F57290D0A0080
:0E640D00776966692E7374612E636F6E6E651B
:07641B00637428290D0A003B
:0E642200776966692E7374612E636F6E66690A
:0E643000672822486F6D65576966694E616D79
:0E643E0065222C22486F6D65576966694B65B3
:0E644C007922292020776966692E7374612EEB
:0C645A00636F6E6E65637428290D0A00E4
:0E646600776966692E7374612E636F6E6669C6
:0E6474006728225363686F6F6C57696669442E
:0E648200646F776E737461697273222C2253FB
:0E64900063686F6F6C50617373776F72642274
:0E649E00292020776966692E7374612E636F62
:0A64AC006E6E65637428290D0A0066
:0E64B600776966692E7374612E636F6E666976
:0E64C4006728225363686F6F6C5570737461A4
:0E64D200697273222C225363686F6F6C5061E5
:0E64E0007373776F72642229202077696669D2
:0E64EE002E7374612E636F6E6E6563742829C1
:0364FC000D0A0086
:0E64FF00776966692E7374612E636F6E66692D
:0E650D0067282248696C6C73696465222C2231
:0E651B0052616E646F6D4368617273222920B5
:0E65290020776966692E7374612E636F6E6E43
:0865370065637428290D0A00B8
:0E653F00776966692E7374612E636F6E6669EC
:0E654D0067282243616765795F485443222C1A
:0E655B00224361676579313233343536373883
:0E656900393022292020776966692E7374610B
:0D6577002E636F6E6E65637428290D0A0097
:0E658400736B3D6E65742E63726561746543C2
:0E6592006F6E6E656374696F6E286E65742E91
:0A65A0005443502C2030290D0A004E
:0E65AA00736B3A6F6E282272656365697665C1
:0E65B800222C2066756E6374696F6E28736303
:0E65C6006B2C206329207072696E7428632983
:0965D40020656E6420290D0A0007
:0C65DD00736B3A636F6E6E656374280088
:0365E9002C220061
:0565EC0022290D0A0048
:0E65F100646F66696C652822676F6F676C6562
:0D65FF0074696D652E6C756122290D0A000E
:0E660C002D2D202A2A44454255472A2A206C6B
:0E661A00656E677468206F66204320697320E8
:0566280025640D0A00CD
:03662D000D0A0053
:046630004A616E004D
:046634004665620055
:046638004D6172003E
:04663C004170720037
:046640004D6179002F
:046644004A756E0025
:046648004A756C0023
:04664C00417567002D
:04665000536570001E
:046654004F6374001C
:046658004E6F76000B
:04665C00446563002E
:0D666000736B3A636C6F736528290D0A0097
:0E666D006E6F64652E64736C6565702832373D
:0B667B0030303030303030290D0A0084
:0E6686002D2D202A2A44454255472A2A2069F4
:0A669400762069732025730D0A00BB
:0E669E002573202568687520257320256C75EE
:0E66AC0020256C7520256420256420313030B7
:0E66BA00202D362E3132373130302C35332E34
:0766C80032343133303000A1
:0E66CF00736B3A73656E6428227944726970A9
:0866DD0028414553293A200031
:0566E5002530327800B1
:0266EA0020008E
:0E66EC00736B3A73656E64282279447269708C
:0366FA003A200043
:0966FD005C725C6E22290D0A009A
:0667060036463559500033
:0E670C005245504C4143454D452E4475636B3C
:08671A00444E532E6F7267001C
:0667220031373631310071
:086728004747794472697000D3
:0669D20036463559500065
:0E69D8005245504C4143454D452E4475636B6E
:0869E600444E532E6F7267004E
:0669EE00313736313100A3
:0869F400474779447269700005
:0E69FC004D797944727C502641455372405BC0
:026A0A004B211E
:016A0C000089
:046A0D00CED5E6E517
:076A11000606060606060456
:086A18000000DFBE0007204270
:016A20000174
:046A2100F40100007C
:0E6A250030313233343536373839414243444C
:0E6A3300454647484A4B4C4D4E505152535425
:046A410055575859F4
:072C5C0075100075110075F1
:062C63001200751300C20F
:042C690009C20AC2D0
:0C2C6D000B43F54043F10275FB8243F875
:0E2C7900C043F44043A908AFB95307F78FB921
:092C8700D2EAC28FD2ABD2AF2217
:0E2C9000AF82AE83ADF0FCC3EF9417EE94005C
:0E2C9E00ED9400EC9400400D74609F74E39E72
:072CAC0074169DE49C500327
:032CB300022D7A75
:022CB6007B00A1
:0E2CB800C374A69F74909E74079DE49C5010F8
:0E2CC6000BECC313FCED13FDEE13FEEF13FF3A
:022CD40080E29C
:0C2CD60078BEEFF208EEF208EDF208EC18
:0E2CE200F290000BE4F5F0C007C006C005C07C
:0B2CF00004C003124B2385821485836F
:052CFB001585F016F53F
:0C2D000017D003D004D005D006D007780F
:0C2D0C00BEEFF208EEF208EDF208ECF267
:0E2D18009021D7E4F5F0C003124B23AC82AD3E
:0C2D260083AEF0FF7867741BF20874B7EE
:0E2D3200F208E4F208F28C828D838EF0EF122C
:0D2D40003248AC82AD83AEF0FFD003EC252D
:082D4D0014FCED3515FDEE3517
:062D550016FEEF3517FF2A
:0B2D5B00ED54FE7006EE7003EF6010F8
:0E2D66000BEFC313FFEE13FEED13FDEC13FC99
:022D740080E5F8
:042D76008BFC8CFA4C
:012D7A002236
:092D7B00AF827E00BF0102800F4F
:052D8400BF0202800EF9
:052D8900BF0302800DF4
:052D8E00BF0410800CE1
:042D93007E38800AFC
:042D97007E1880061C
:042D9B007E30800204
:022D9F007E10A4
:082DA100744755FB4EF5FB22BF
:0A2DA900AF82BF020543FB04800760
:072DB300AFFB5307FB8FFB90
:012DBA0022F6
:092DBB00E511C3951014F5822204
:082DC400AE82AF837857E2FDF7
:0A2DCC00ED6026E51024AEFBE434B0
:0C2DD600F3FC8E828F83E0FAA3AE82AF84
:0C2DE200838B828C83EAF0E51004FC8CEB
:072DEE00101D439A0880D775
:012DF50022BB
:0A2DF600AF82E51024AEF582E4344C
:0A2E0000F3F583EFF0E51004FF8FF7
:052E0A0010439A0822AC
:082E0F00E513C39512F58222C0
:082E1700E51224AEF582E4345B
:0A2E1F00F4F583E0FFE51204FE8ED7
:042E2900128F822260
:0E2E2D00C0E0C082C083C007C0D075D000E5F1
:062E3B0010B51102801821
:0A2E4100C2EAE51124AEF582E43484
:0A2E4B00F3F583E0F5F9E51104FF4B
:042E55008F11800752
:072E5900AF9A5307F78F9AAF
:0B2E6000D0D0D007D083D082D0E03269
:0E2E6B00C0E0C082C083C007C006C005C0041E
:0E2E7900C003C0D075D000C28FE5F8FF54181A
:042E87006002803134
:0A2E8B00AD127E00AB137C00EDC316
:0A2E95009BFDEE9CFE1DBDFF011E1B
:0A2E9F00ED6016E51324AEF582E4A1
:0A2EA90034F4F583E5F9F0E51304B5
:052EB300FE8E138010EB
:042EB800D20B800CAD
:062EBC00EF30E402D20A2F
:062EC200EF30E302D2092B
:0E2EC800D0D0D003D004D005D006D007D083E0
:052ED600D082D0E032C3
:082EDB00E511C39510F58222F8
:0C2EE300AC82AD83AEF0FF7B00785CE4B5
:012EEF00F2F0
:0A2EF000785BE2235401FA70527877
:0C2EFA0058E225E0F208E233F208E2336F
:0C2F0600F208E233F27858C3E2F5F0EC78
:0E2F120095F008E2F5F0ED95F008E2F5F0EE2E
:0C2F200095F008E2F5F0EF95F050147801
:0C2F2C005BE2C313F218E213F218E21388
:072F3800F218E213F2800C15
:0A2F3F00785CE22401F2785CE2FB0A
:022F490080A561
:0C2F4B007858C3E2F5F0EC95F008E2F5D0
:0E2F5700F0ED95F008E2F5F0EE95F008E2F5E9
:0C2F6500F0EF95F0401C7858D3E29CF48B
:0E2F7100B3FCB308E29DF4B3FDB308E29EF496
:082F7F00B3FEB308E29FF4FF6A
:0C2F8700785BE2C313F218E213F218E2C8
:0E2F930013F218E213F28B021BEA70AC8C8270
:062FA1008D838EF0EF228B
:0605D400751800C20CC204
:0405DA000DC20EC27E
:0105DE000F0D
:0C2FA700C025C0E0C0F0C082C083C0079D
:0E2FB300C006C005C004C003C002C001C000BB
:0E2FC100C0D0E4F5D0F59BE5E930E4187403C8
:0B2FCF00B5180875821E123066800BDA
:0B2FDA007402B5180675821F123066E5
:0B2FE500E5E930E50675822012306639
:0A2FF000300C427403B51802804F44
:0C2FFA007402B5182390DF3BE0FFBF0D10
:0E3006001B90DF3CE0FF20E33A90DF12E0FF7A
:08301400530707BF0702800605
:06301C0074F625A4502704
:0A30220090DF3BE0FFBF0D028003CA
:03302C0075E10447
:06302F00758221123066DB
:0A303500E5E930E705D20F75E97FE9
:0A303F00E5E930E605D20E75E9BFA1
:0E304900D0D0D000D001D002D003D004D005EA
:0D305700D006D007D083D082D0F0D0E0D0DA
:02306400253213
:0C306600AF8290DF3BE0FEBE1202801E35
:0A30720090DF3BE0FEBE0102801477
:0E307C0090DF3BE0FE600D90DF3BE0FEBE15F6
:03308A00028003BE
:03308D0075E100EA
:0C30900075D682AED15306FD8ED17518A6
:0D309C000290DF127407F08F821233C530EE
:0B30A9000D12AF9A5307FE8F9A85A40A
:0330B4001A851862
:0530B70019751801C2AB
:0130BC000D06
:0A30BD0075E9CFAF18BF0102801AB9
:0530C700BF02028005BC
:0530CC00BF03158008A0
:0830D10043D60275E102800BF9
:0830D90043D60275E1038003F8
:0330E10075E10492
:0330E400C20C22F9
:0630E700D20C439B032202
:0530ED00D20D1230E7D6
:0430F200200CFD228F
:0A30F60085191890DF12E0FF700743
:07310000F5A2851AA4F5A356
:0A310700439A01AF18BF02028005D1
:05311100BF031080085F
:0831160043D60275E1028006B8
:06311E0043D60275E10337
:013124002288
:0E312500124F1490DF147414F090DF13740531
:0E313300F090DF127407F0439A017591F0D20C
:08314100AF90F80B7413F022AB
:0C314900AE82AF83785DE2601290DF126E
:0C315500E4F075A200785DE2F5A475A31B
:03316100008006E5
:0631640090DF127407F079
:0E316A007CD97D0074DF2DFC90F805ECF07C24
:0E317800D990F806ECF08F0590F807EDF09076
:0D318600F808EEF090DF02E0FF0F0F0F9051
:0B319300F80AEFF090F8097480F0904B
:09319E00F80C7410F075180222FF
:0E31A700AE82AF838F0590F805EDF090F8062C
:0E31B500EEF07ED97F0074DF2FFE90F807EE5B
:0E31C300F07ED990F808EEF090DF02E0FF0FEA
:0C31D10090F80AEFF090F8097420F090DC
:0931DD00F80C7440F0751803228F
:0C31E600AFF0AE83E5827861F208EEF2F3
:0C31F20008EFF2785EE2FA08E2FB08E267
:0A31FE00FC78617964E2F308E2094D
:05320800F308E209F3E8
:0E320D008A828B838CF0125BFFFFA3AA82AB38
:0C321B00837864E2F58208E2F58308E2A3
:0E322700F5F0EF12377EA31818E582F208E5E5
:0C32350083F2EF70D37861E2F58208E2CA
:07324100F58308E2F5F0221D
:0C324800AF82AE83ADF0FC786BEFF208B3
:0E325400EEF208EDF208ECF27A007B007E004C
:043262007F007D204C
:0A326600786EE2235401FC24FF926D
:0A32700010786BE225E0F208E2336B
:0E327A00F208E233F208E233F2EA2AFAEB330A
:0C328800FBEE33FEEF33FF301003430277
:013294000138
:0C3295007867C3E2F5F0EA95F008E2F576
:0E32A100F0EB95F008E2F5F0EE95F008E2F59E
:0C32AF00F0EF95F040227867D3E29AF42B
:0E32BB00B3FAB308E29BF4B3FBB308E29EF44F
:0C32C900B3FEB308E29FF4FF786BE24410
:0232D50001F204
:0C32D700DD8D786BE2F58208E2F58308DB
:0632E300E2F5F008E22212
:0705DF00751B00751C00757F
:0605E6001D00751E00C29D
:0405EC0011C21278AE
:0905F0006FE4F208F208F208F2CF
:0C32E900125C1B90DF027413F03011091E
:0932F500786F90DF06E2F080170B
:0E32FE00906730E493FC740193FD740293FE1C
:09330C00740393FF90DF06ECF05E
:073315001231251230E722FE
:0B331C0012347CE582540304F5822289
:0A332700E51EC3951D14540FF58236
:013331002279
:0A333200E51DC3951E540FF582221D
:0C333C00123327E582700590000080111C
:0A334800E51D75F014A424F0FE74D6
:07335200F535F08E82F583D2
:013359002251
:0A335A00740FB51D05751D008002FB
:02336400051D45
:043366001230E72218
:0A336A00E51CB51B05900000801063
:0A337400E51B75F016A424AEFEE47C
:06337E0034F58E82F58398
:013384002226
:0A3385007402B51B05751B008002E1
:02338F00051B1C
:013391002219
:07339200E51DB51E028015C8
:0A339900E51E75F014A424F0F5827F
:0B33A30074F535F0F5831231A7801699
:0A33AE00E51C75F016A424AEF582AC
:0A33B800E434F5F583785DE4F212C9
:0233C20031498F
:0133C40022E6
:0B33C500AF82BF210612339202347B5E
:0A33D000BF1E33740FB51E05751EF5
:0333DA000080026E
:0233DD00051ECB
:0A33DF00E51C75F016A424AEFDE411
:0C33E90034F5FEC006C00512331CAC8297
:0C33F500D005D006785DECF28D828E834E
:05340100123149807545
:0A340600BF1F6CE51C75F016A4242E
:07341000AEFDE434F5FE20DF
:0C341700123BC006C005124FDBD005D0F0
:0A34230006402EE51DB51E02801ABA
:0E342D00C006C00512331CAC82D005D0067854
:0C343B005DECF28D828E83123149800B13
:0B344700785DE4F28D828E8312314923
:023452008027D1
:0C3454008D828E83E060157402B51C04AC
:043460007E00800466
:04346400E51C04FE61
:06346800EEB51B0280021C
:02346E008E1CB2
:053470001233928006FA
:06347500BF200312339298
:01347B00222E
:0467300080000000E5
:0604BC00E478FFF6D8FD14
:08347C00E5B4540C600280F875
:0C34840085BC82743055B44407F5B422B6
:0A349000AF827873E27003EF600969
:09349A007873E2B40308BF800559
:0534A300787374AAF229
:0B34A8008FBC7873E2F5BC12347C127C
:0634B300347C12347C227F
:0C34B900AD82AE83AFF07879EDF208EE42
:0C34C500F208EFF28D048E038F02787481
:0B34D100E2FD08E2FE08E2FF8C758BB4
:0434DC00768A7778FD
:0734E00077E2F57808E2F540
:0134E700796B
:0534E800AB78AC791582
:0734ED007874FFB5780215A9
:0134F400795E
:0E34F500EB4C60258D828E838FF0125BFFFC06
:0A350300A3AD82AE83857582857644
:0B350D00838577F0EC12377EA38582E7
:063518007585837680CA70
:0C351E007879E2F58208E2F58308E2F516
:02352A00F0228D
:0C352C00AFF0AE83E582787FF208EEF28B
:0C35380008EFF2787FE2FA08E2FB08E2FC
:09354400FC787DE2F57508E2F562
:01354D007607
:05354E00AE75AF76151B
:073553007574FFB575021548
:01355A0076FA
:0C355B00EE4F60138A828B838CF0787C2A
:0B356700E212377EA3AA82AB8380DC57
:0C357200787FE2F58208E2F58308E2F5BC
:02357E00F02239
:08049A00797CE94400601B7A43
:0504A200019069D27811
:0304A70025759325
:0A04AA00F8E493F2A308B80002057D
:0804B40093D9F4DAF27593FF0D
:0905F900788274E4F208740CF23B
:0C35800075828F125C2FAE82AF8378BE84
:0E358C00EEF208EFF208E4F208F2900EA6E468
:0E359A00F5F0124B23AC82AD83AEF0FF74FF50
:0D35A8002CFC74033DFDE43EFEE43FFF7883
:0C35B5006774FFF2087407F208E4F208E3
:0C35C100F28C828D838EF0EF12324822D3
:0C35CD00AE82AF837882EEF208EFF222AB
:0C35D900AE82E583FF3395E0FDFC7882B4
:0C35E50079BEE2F308E209F309E4F309FF
:0E35F100F38E828F838DF0EC124B23AC82ADF3
:0E35FF0083AEF0FF74FF2CFC74033DFDE43E30
:0C360D00FEE43FFF78CE74FFF208740763
:0E361900F208E4F208F28C828D838EF0EF123C
:033627004D23220E
:0C362A00AFF0AE83E5827887F208EEF284
:0C36360008EFF27887E2FA08E2FB08E2F5
:01364200FC8B
:0E3643008A828B838CF0125BFF60070ABA004C
:04365100F10B80EE0B
:0B3655007884E2FD08E2FE08E2FF7846
:093660008AEAF208EBF208ECF230
:0E3669008D828E838FF0125BFFFCA3AD82AECC
:0C36770083788AE2F58208E2F58308E21D
:0E368300F5F0EC12377EA31818E582F208E588
:0C36910083F2EC70D37887E2F58208E247
:07369D00F58308E2F5F022BD
:0C36A400AD82AE83AFF07890EDF208EE3E
:0A36B000F208EFF2788D7993E2F34F
:0C36BA0008E209F308E209F37893E2F556
:0E36C6008208E2F58308E2F5F0125BFF700760
:0736D4008D828E838FF0222E
:0E36DB008D828E838FF0125BFF7003023777B3
:0B36E9007893E2FA08E2FB08E2FC8D97
:0436F400758E768FCA
:0136F800775A
:0736F900857582857683854B
:0637000077F0125BFFF5FB
:0C3706007860438A828B838CF0125BFF9A
:0B371200F5796036C005C006C007E571
:07371D0078F57A3395E0F521
:093724007BE579FD3395E0FFE53A
:0A372D007AC39DFDE57B9F4DD00798
:0A373700D006D005700F0575E4B54B
:043741007502057692
:073745000ABA00B00B80ADD1
:0C374C008A828B838CF0125BFF700E7879
:0C37580090E2F58208E2F58308E2F5F04B
:013764002242
:053765000DBD00010E86
:0B376A007890EDF208EEF208EFF2029A
:0237750036DB41
:0737770090000075F0002234
:0E377E0020F71030F6118883A88220F507F698
:05378C00A88375830015
:013791002215
:03379200F280F7CB
:02379500F02220
:06060200751F00C213C2C7
:06060800147897E4F2787B
:09060E0098E4F2789974FFF27E81
:04061700207F387890
:06061B009AEEF208EFF276
:0C37970078AA740AF27582011240517881
:0B37A300AB7440F27582041240837882
:0B37AE00AA7440F275820412405178AA
:0537B9009974FFF222EB
:0E37BE0090F731E0FF53077FBF215590F7359C
:0E37CC00E0FEA3E0FF4E6006BE0147BF0044D2
:0A37DA0090F732E0FFBF2002800AE2
:0537E400BF2102801668
:0537E900BF2232802226
:0737EE0078A87498F208743A
:0A37F500F8F290000712401C801F3C
:0737FF0078A67498F208742B
:0A380600F8F2900007123FFB800E5D
:0C38100090F733E0FEA3E07897EEF21290
:02381C00403D2D
:01381E002287
:01381F002286
:013820002285
:0C382100789AE2F58208E2F58312048B2D
:0E382D0090F898E0FCA3E0FDA3E0FEA3E0FF0E
:0D383B00BC4D1DBD011ABE0017BF001420BA
:053848001411D214125E
:0E384D004CC3AC82AD83AEF0FF90F730ECF0D0
:01385B00224A
:0A385C0090F89FE0FFBF1002800506
:05386600758200801ACC
:0E386B0090DE0E7404F090DE14E0FF30E009F1
:0938790090DE16E0FFF5828003E9
:033882007582004C
:013885002220
:0E38860090DE0E7404F090DE28E0FF90DE1657
:0C389400E0FE700890DE14E054FEFEF030
:0538A000D2178F822207
:0A38A500AE82AF83789C79A0E2F3B5
:0B38AF0078A1EEF208EFF2758204121F
:0E38BA003A5090DE16E0FF700890DE14E054E5
:0338C800FEFFF010
:0138CB0022DA
:0E38CC0090DE0E7404F090DE11E0FF4401F077
:0838DA007440B51F03D3800107
:0138E200C322
:0538E30092159213751F
:0538E8001F00D21722B1
:0738ED00123AC83014191251
:0E38F4004CC3AC82AD83AEF090F730E0FFEC39
:0A390200C39FFC24B950031241409A
:0A390C0090F89FE0FFBF1002800258
:023916008079B6
:0B39180090DE0E7404F0E51F700B3011
:0A392300130B90DE11E0FF20E1031A
:03392D001238CC81
:0A39300090DE0E7401F0789879998A
:09393A00E2F5F0E3B5F002804E65
:0E39430090DE11E0FF20E04690DE2274A1F03D
:0E3951007420F0E4F090DE22F090DE22F09080
:0C395F00DE22F090DE227402F0E4F0782A
:0C396B009890DE22E2F090DE22E4F09062
:0C397700DE11E04401F07898E2FF5307F5
:0A398300837898EFF27898E2FF785D
:04398D0099F2D217C2
:013991002213
:0A39920090F89FE0FFBF10028005CF
:05399C00758200802788
:0E39A10090DE0E7404F090DE11E0FF30E112B3
:0939AF00EF30E005758200801084
:0939B8007440C3951FF5828007DD
:0739C1007480C3951FF5821D
:0139C80022DC
:0439C900AE82AF8398
:0A39CD00789DE260517440C3951F1D
:0A39D700FD789DC3E29D5004789D29
:0239E100E2FD05
:0A39E30078A3EDF278A4EEF208EFED
:0E39ED00F2758204C007C006C005123A85D0EC
:0C39FB0005D006D007ED2EFEE43FFF785B
:093A07009DE2C39DF2ED251FF5BF
:0A3A10001F7440B51FB7C007C006C1
:093A1A001238CCD006D00780AAB6
:013A23002280
:0B3A2400E58290DE28F0051F7440B51D
:053A2F001F031238CC5A
:013A3400226F
:063A35007897E2F5822201
:0A3A3B00AF827898E2547C4F78982F
:023A4500F2226B
:083A4700AF827898E24FF222F1
:0E6734001201000202000020FB1F00220000E4
:04674200010203014C
:0E67460009024300020100C0320904000001F4
:0E6754000202010005240020010424020205B7
:0E676200240600010524010001070581030A39
:0E677000000109040100020A000000070504F0
:0B677E000240000007058402400000FC
:01678900040B
:04678A0004030904F7
:0E678E00260350006F006C006F006C00750059
:0E679C00200043006F00720070006F0072005A
:0A67AA006100740069006F006E00CA
:0C67B4000C0357006900780065006C00C1
:0267C0008A67E6
:0267C2008E67E0
:0267C400B467B8
:0267C600E603E8
:076A4500802500000000089D
:04062100C216C21724
:013A4F002254
:0E3A5000AF82E4CF25E0CF33FE74202FFF7449
:0A3A5E00DE3EFE78A0E2FD78A1E252
:043A6800FB08E2FC79
:0E3A6C00ED60131D8F828E83E0FA8B828C83B7
:083A7A00F0A3AB82AC8380EAEB
:033A8200D2172236
:0E3A8500AF82E4CF25E0CF33FE74202FFF7414
:0A3A9300DE3EFE78A3E2FD78A4E217
:043A9D00FB08E2FC44
:0E3AA100ED60141D8B828C83E0FAA3AB82AC27
:093AAF00838F828E83EAF080E926
:013AB80022EB
:0C3AB900C21690DE017401F090DE0B7468
:033AC50007F022E5
:0D3AC8001241794014AFBE53077F8FBE122C
:083AD500418290F89FE4F0C269
:043ADD0016023CEDA4
:0E3AE10090F89FE0FF701312418A43BE8000F0
:0C3AEF0000000090F89F7402F0123AB939
:0E3AFB0090DE06E0FF90DE02E0FEEF30E0021B
:023B0900D216D2
:0E3B0B00EF30E21690F89F7404F090F8A0E4FA
:0C3B1900F0C007C006123AB9D006D00771
:063B2500EF30E102C216C0
:073B2B00EE20E003023CED77
:0C3B320090DE0EE4F090DE11E0FFD217F0
:0E3B3E00EF30E40B90DE117480F090F8A0E4FC
:013B4C00F088
:0D3B4D00EF30E20990DE11E4F090F8A0F0F6
:073B5A00EF20E003023C83B1
:0A3B610090F8A0E0FEBE0102800310
:033B6B00023C0910
:0E3B6E0090DE16E0FE90F739E0FCA3E0FD8E3D
:0C3B7C00027B00C3EC9AED9B50028C060B
:073B880078A0EEF2789E79AF
:0C3B8F00A1E2F308E209F3758200C00710
:0C3B9B00C006123A50D006D007789EE217
:0E3BA7002EF208E23400F290F739E0FCA3E0C1
:0E3BB500FD7B0090F739ECC39EF0ED9BA3F072
:0E3BC30090F739E0FDA3E0FE4D600990DE11A1
:063BD1007440F0023C8389
:0E3BD70090F731E054606007C007123821D02B
:013BE50007D8
:0D3BE60090DE0EE4F090F8A0E0FE70099073
:083BF300DE117468F0023C834E
:0E3BFB0090DE117448F090F8A0E4F0023C83D4
:0B3C090090DE16E0FEBE086C78A1748F
:073C140031F20874F7F278A9
:0C3C1B00A07408F2758200C007123A5035
:0E3C2700D00790F8A0E4F090F731E054607000
:0A3C350009C007123CEED00780071B
:073C3F00C0071237BED007D9
:0D3C460090DE0EE4F090F8A0E0FE70089013
:073C5300DE117460F080290E
:0E3C5A00BE012690F739E0FDA3E0FE4D6008A4
:083C680090DE117440F080139E
:0D3C700090DE11744AF090F8A0E4F0800698
:063C7D0090DE117440F01E
:0D3C8300EF20E16690F8A0E0FEBE025E902A
:0E3C9000F739E0FDA3E0FEC3ED9420EE9400B2
:0B3C9E0050097F0A90F8A0E4F08004B9
:043CA9007F027D20F9
:073CAD0078A3EDF2789E7987
:0C3CB400A4E2F308E209F3758200C007E7
:0E3CC000C005123A85D005D00790DE11EFF056
:0B3CCE00789EE22DF208E23400F29034
:0E3CD900F739E0FEA3E0FF7C0090F739EEC360
:063CE7009DF0EF9CA3F02C
:013CED0022B4
:0A3CEE0090F73BE4F090F73CF090F3
:0B3CF800F732E0FF24F35003023FA36B
:073D0300EF2F2F903D0A7322
:073D0A00023ECD023F8F02D3
:063D11003FA3023F8F02F8
:063D17003FA3023E08027A
:063D1D003D31023FA3024C
:063D23003E66023E29028B
:063D29003E8B023FA302E5
:023D2F003F94BF
:0E3D310090F733E0FEA3E0FFFC7D00BC01052F
:053D3F00BD000280132D
:083D4400BC0205BD0002802055
:083D4C00BC0305BD0002803B31
:033D5400023DD35A
:073D5700789E7434F2087439
:0C3D5E0067F290F7397412F0A3E4F00251
:023D6A003DE03A
:063D6C00EE6003023FA31C
:073D7200789E7446F208740C
:0C3D790067F2906748E493FCA3E493FD1C
:0A3D850090F739ECF0A3EDF0805147
:0E3D8F008E047D00906789E493FB7A00C3ECFC
:083D9D009BED9A4003023FA3D5
:0C3DA500E4CE25E0CE33FFEE24C0F58212
:0C3DB100EF3467F583E493FEA3E493FF76
:0C3DBD00789EEEF208EFF28E828F83E019
:0A3DC900FE90F739F0A3E4F0800D3E
:0B3DD30012381F90F8A0E0FF70030200
:023DDE003FA301
:0E3DE00090F737E0FEA3E0FF90F739E0FCA378
:0E3DEE00E0FDC3EE9CEF9D500890F739EEF01B
:033DFC00A3EFF042
:093DFF0090F8A07402F0023FA349
:0E3E080090F733E0FEA3E0FF90DE00EEF0EE58
:063E160060047F08800239
:023E1C007F0421
:093E1E0090F89FEFF012403D0204
:023E27003FA3B7
:0E3E290090F733E0FEA3E0FFBE0005BF0002ED
:023E3700800801
:083E3900BE0121BF001E801133
:0E3E410090F89FE0FF24F7501690F89F740849
:033E4F00F0800EF2
:0B3E520090F89F7410F0123797800367
:033E5D00023FA37E
:063E600012403D023FA3E9
:0C3E660090F89FE0FFBF10047F01800275
:023E72007F00CF
:083E740090F73BEFF078A67413
:0A3E7C003BF20874F7F29000011207
:053E86003FFB023FA319
:083E8B0090F89FE0FFBF10005A
:053E93005003023FA3F3
:0B3E980090F735E0FEA3E0FF7C467DC4
:0C3EA300678C828D83A3A3A3A3E493FD8E
:0C3EAF007C00C3EE9DEF9C4003023FA38B
:073EBB0078A6743BF20874C5
:093EC200F7F2900001123FFB022F
:023ECB003FA313
:0E3ECD0090F731E0541FFE7F00BE0005BF00DD
:033EDB000280144E
:083EDE00BE0105BF0002802EA9
:093EE600BE0206BF0003023F5FAB
:033EEF00023F8D02
:093EF20012417F50047F0180029F
:023EFB007F0046
:083EFD0090F73BEFF078A6748A
:0A3F05003BF20874F7F2900002127C
:053F0F003FFB023FA38F
:083F140090F89FE0FFBF1000D0
:0E3F1C00500E90F735E0FEA3E0FF4E6003026A
:023F2A003FA3B3
:0B3F2C0090F735E0FEA3E0FF7C467D2F
:0C3F3700678C828D83A3A3A3A3E493FDF9
:0B3F43007C00C3EE9DEF9C4002805507
:073F4E0078A6743BF2087431
:0A3F5500F7F2900002123FFB8044D7
:0E3F5F0090F733E0FEA3E0FFEE540F60028007
:013F6D000251
:023F6E0080339E
:083F700090F89FE0FFBF100074
:043F7800500280274C
:073F7C0078A6743BF2087403
:0A3F8300F7F2900002123FFB8016D7
:023F8D0080149E
:053F8F0012403D800F0F
:073F940078A6743BF20874EB
:083F9B00F7F2900002123FFB57
:013FA30022FB
:033FA400A2162240
:0C3FA700AF8CA2BD9218C2BD438C10AEBE
:063FB3008C5306FE8E8C0B
:0E3FB900758900C2C5D2BDAEBE74FC5E440167
:0E3FC700FE8EBE000000E5BE54036007D290DF
:053FD500438701C290CA
:093FDA00C2BDE58930E702C21600
:0C3FE300301609C00712417FD00750CAF9
:0C3FEF00E5BE30E6FB8F8CA21892BD22CC
:0E3FFB00AE82AF8390F8A07402F090F739EE1A
:0C400900F0A3EFF078A6E2FE08E2FF78DA
:074015009EEEF208EFF2221B
:0E401C00AE82AF8390F8A07401F090F739EEF9
:0C402A00F0A3EFF078A8E2FE08E2FF78B7
:074036009EEEF208EFF222FA
:0E403D0090F8A07401F090F739E4F0A3F0229F
:06404B0090F8A0E4F02251
:0C405100E58290DE0EF078AAE2FE7F000F
:0E405D0074072EFEE43FFFC423CEC423541F7D
:0C406B006ECE541FCE6ECE30E40244E056
:0C40770090DE10EEF090DE127401F022DA
:0C408300E58290DE0EF078ABE2FE7F00DC
:0E408F0074072EFEE43FFFC423CEC423541F4B
:0C409D006ECE541FCE6ECE30E40244E024
:0C40A90090DE13EEF090DE157401F022A2
:016A4C000049
:016A4D000048
:0506250078AC7480F2C6
:0740B5001240DC1240C612AC
:0640BC004CE4124DF82255
:0440C200124167221E
:0740C600AFBE5307FB8FBEE4
:0E40CD00E5BE30E6FB75C68043BE0475C70035
:0140DB0022C2
:0A40DC0075FF0075A00675F7992224
:0C40E600124CC3AC82AD83AEF0FF78AC8E
:0E40F200D3E29CF4FC24E65044E5FFC45401E4
:0C410000FF24FF921A400943FF10758253
:04410C0002125C9FA0
:0E411000AFF75307EF8FF7AFFF5307EF8FFFA7
:0C411E00758201125C9FA2A4921943F765
:07412A0010301A0343FF10DF
:0C413100124CC3AC82AD83AEF0FF78AC42
:02413D00ECF2A2
:01413F00225D
:0E414000C2AF75D69F75820A125C9F75FF0094
:0E414E0075FE0075FD0075F50075F40075F343
:0B415C0000900064124CEF02000622ED
:0E416700E5FF20E20C75820A125C9F30A20375
:03417500124140B4
:014178002224
:064179001240E6A219222B
:03417F00A2A322D6
:08418200AFFF5307FE8FFF227F
:06418A00D2A043FF012258
:0D419000E58290F7EDF09067C893F582226C
:06419D00E4F54EF54FF5BC
:0341A30050F55183
:0A41A600C3E54E9404E54F9400E5D4
:0A41B000509400E551940040030212
:0241BA0042A71A
:0941BC00E54E25E025E0F54B2459
:0541C5003DF54CE4345F
:0441CA00F7F54DE5D3
:0441CE004E254EF537
:0541D20052E54F33F53A
:0541D70053E55033F533
:0541DC0054E55133F52C
:0441E10055E5522529
:0441E50052F552E558
:0541E9005333F553E51E
:0541EE005433F554E517
:0541F3005533F555787D
:0941F800AFE22552F58208E23520
:0842010053F583E0854C828532
:074209004D83F0E54B042496
:054210003DF54CE43413
:06421500F7F54D740125D0
:08421B0052FCE43553FDE435CB
:0542230054E43555785C
:0C422800AFE22CF58208E23DF583E08552
:094234004C82854D83F0740225D3
:06423D004B243DFEE434B9
:09424300F7FF74022552FAE4357C
:07424C0053FBE43554E43597
:0A4253005578AFE22AF58208E23B3D
:0C425D00F583E08E828F83F07403254B04
:0A426900243DFEE434F7FF74032542
:0842730052FAE43553FBE43577
:06427B0054FCE435557807
:0C428100AFE22AF58208E23BF583E0FD85
:0A428D008E828F83F0054EE4B54EDB
:074297000C054FB54F0705B0
:05429E0050B5500205BF
:0142A30051C9
:0342A4000241A62E
:0442A700854E568565
:0342AB004F5785E5
:0342AE00505885E0
:0242B100515961
:0A42B300C3E556942CE5579400E58E
:0A42BD00589400E5599400400302F4
:0242C700447839
:0442C900855652853F
:0342CD00575385BF
:0342D000585485BA
:0442D3005955E4F560
:0442D7004EF54FF55C
:0342DB0050F5514A
:0A42DE00C3E54E9404E54F9400E59B
:0A42E800509400E5519400503AE5AF
:0542F2004E24EEFAE588
:0542F7004F34F7FBAF9E
:0A42FC00521FEF2F25E0FFE54EFEF4
:0A4306002F243DF582E434F7F5831F
:0B431000E0FF8A828B83F0054EE4B5CD
:05431B004E0C054FB53A
:054320004F070550B538
:0443250050B7055137
:0243290080B35F
:09432B00E556540360030243C887
:0B43340090F7EEE0FA90F7EFE0FD904C
:08433F00F7EEF090F7F0E090BA
:08434700F7EFF090F7F1E090B0
:0B434F00F7F0F090F7F1EAF08D821219
:0A435A004190AF8290F7EEEFF09073
:0B436400F7EFE0F582124190AF82906D
:0B436F00F7EFEFF090F7F0E0F582129E
:0A437A004190AF8290F7F0EFF09051
:0B438400F7F1E0F582124190AF82904B
:0A438F00F7F1EFF090F7EEE0FFE524
:0943990059C313FEE55813FDE5BC
:0A43A2005713FCE55613FBEEC3139E
:0C43AC00ED13FDEC13FCEB13FB24C8F533
:0C43B80082EC3468F583E493FE62079009
:0443C400F7EEEFF031
:0A43C800E556FC25E025E0FF243D4A
:0C43D200FDE434F7FE1C1C1C1CEC2C2528
:0A43DE00E0FC243DF582E434F7F51D
:0E43E80083E0FB90F7EEE062038D828E83EBA4
:0A43F600F0EF04243DFDE434F7FE6F
:0A440000EC04243DF582E434F7F5E6
:0E440A0083E0FB90F7EFE062038D828E83EB80
:0A441800F074022F243DFDE434F798
:0A442200FE74022C243DF582E43400
:0C442C00F7F583E0FB90F7F0E0FA620384
:0C4438008D828E83EBF074032F243DFE78
:0A444400E434F7FF74032C243DF567
:0C444E0082E434F7F583E0FD90F7F1E024
:0C445A00FC62058E828F83EDF00556E4B5
:06446600B5560C0557B528
:05446C0057070558B5DB
:04447100580205598F
:034475000242B34D
:014478002221
:0C447900E58290F7F2F0C454F0FF7E00E2
:03448500BE040072
:0C4488005048EE2E25E0FD2FF5757B005E
:03449400BB040066
:0C4497005036C00778ADE22DFA08E23480
:0C44A30000FFEB2AFAE43FFFEB25752434
:0A44AF003DF582E434F7F583E0F5F3
:0A44B900768A828F83E0FCE57662CC
:0C44C300048A828F83ECF00BD00780C5C8
:0344CF000E80B3A9
:0144D20022C7
:0244D3007F0068
:0344D500BF040021
:0644D800504A8F067D0032
:0344DE00BD04001A
:0C44E100503EED2D25E0FC78ADE22CFCF7
:0E44ED0008E23400FBEE2CFCE43BFB8C828BDF
:0E44FB0083E0F582C007C006C005C004C00300
:0E450900124190AA82D003D004D005D006D073
:0A451700078C828B83EAF00D80BD53
:034521000F80B157
:014524002274
:0C45250078ADE2FE08E2FF74012EFCE419
:0C4531003FFD8C828D83E0F57574052E33
:07453D00F576E43FF57785F8
:0A4544007682857783E08C828D83F8
:0E454E00F074092EFCE43FFD8C828D83E08525
:0A455C007682857783F0740D2EF54A
:0645660076E43FF57785C5
:0A456C007682857783E08C828D83D0
:08457600F0857682857783E56C
:0C457E0075F074022EFCE43FFD8C828D71
:0A458A0083E0F576740A2EF578E45C
:074594003FF579857882856F
:0A459B007983E08C828D83F085782F
